{
  "contractName": "AuditAssignments",
  "abi": [
    {
      "anonymous": false,
      "inputs": [
        {
          "indexed": false,
          "internalType": "uint256",
          "name": "index",
          "type": "uint256"
        },
        {
          "indexed": true,
          "internalType": "uint256",
          "name": "auditId",
          "type": "uint256"
        },
        {
          "indexed": false,
          "internalType": "address",
          "name": "auditor",
          "type": "address"
        }
      ],
      "name": "LogAddAssignedAuditor",
      "type": "event"
    },
    {
      "anonymous": false,
      "inputs": [
        {
          "indexed": false,
          "internalType": "uint256",
          "name": "index",
          "type": "uint256"
        },
        {
          "indexed": true,
          "internalType": "uint256",
          "name": "auditId",
          "type": "uint256"
        },
        {
          "indexed": false,
          "internalType": "address[]",
          "name": "auditors",
          "type": "address[]"
        }
      ],
      "name": "LogNewAuditAssignment",
      "type": "event"
    },
    {
      "anonymous": false,
      "inputs": [
        {
          "indexed": false,
          "internalType": "uint256",
          "name": "index",
          "type": "uint256"
        },
        {
          "indexed": true,
          "internalType": "uint256",
          "name": "auditId",
          "type": "uint256"
        },
        {
          "indexed": false,
          "internalType": "address[]",
          "name": "auditors",
          "type": "address[]"
        }
      ],
      "name": "LogUpdateAuditAssignment",
      "type": "event"
    },
    {
      "anonymous": false,
      "inputs": [
        {
          "indexed": false,
          "internalType": "uint256",
          "name": "index",
          "type": "uint256"
        },
        {
          "indexed": true,
          "internalType": "uint256",
          "name": "auditId",
          "type": "uint256"
        },
        {
          "indexed": false,
          "internalType": "uint256",
          "name": "auditResultId",
          "type": "uint256"
        }
      ],
      "name": "LogUpdateAuditResult",
      "type": "event"
    },
    {
      "anonymous": false,
      "inputs": [
        {
          "indexed": false,
          "internalType": "uint256",
          "name": "index",
          "type": "uint256"
        },
        {
          "indexed": true,
          "internalType": "uint256",
          "name": "auditId",
          "type": "uint256"
        },
        {
          "indexed": false,
          "internalType": "uint256[]",
          "name": "auditFee",
          "type": "uint256[]"
        }
      ],
      "name": "LogUpdatePayments",
      "type": "event"
    },
    {
      "inputs": [
        {
          "internalType": "uint256",
          "name": "auditId",
          "type": "uint256"
        }
      ],
      "name": "isAuditAssigned",
      "outputs": [
        {
          "internalType": "bool",
          "name": "",
          "type": "bool"
        }
      ],
      "stateMutability": "view",
      "type": "function",
      "constant": true
    },
    {
      "inputs": [
        {
          "internalType": "uint256",
          "name": "auditId",
          "type": "uint256"
        },
        {
          "internalType": "address[]",
          "name": "_auditors",
          "type": "address[]"
        }
      ],
      "name": "insertAuditAssignment",
      "outputs": [],
      "stateMutability": "nonpayable",
      "type": "function"
    },
    {
      "inputs": [
        {
          "internalType": "uint256",
          "name": "auditId",
          "type": "uint256"
        }
      ],
      "name": "getAuditAssignment",
      "outputs": [
        {
          "components": [
            {
              "internalType": "uint256",
              "name": "index",
              "type": "uint256"
            },
            {
              "internalType": "uint256",
              "name": "auditId",
              "type": "uint256"
            },
            {
              "internalType": "address[]",
              "name": "auditors",
              "type": "address[]"
            },
            {
              "internalType": "uint256[]",
              "name": "auditResultIds",
              "type": "uint256[]"
            },
            {
              "internalType": "uint256[]",
              "name": "auditorFees",
              "type": "uint256[]"
            },
            {
              "internalType": "bool[]",
              "name": "auditorFeePaid",
              "type": "bool[]"
            },
            {
              "internalType": "bool[]",
              "name": "auditorResults",
              "type": "bool[]"
            }
          ],
          "internalType": "struct AuditAssignments.AuditAssignmentData",
          "name": "",
          "type": "tuple"
        }
      ],
      "stateMutability": "view",
      "type": "function",
      "constant": true
    },
    {
      "inputs": [
        {
          "internalType": "uint256",
          "name": "auditId",
          "type": "uint256"
        },
        {
          "internalType": "address",
          "name": "auditor",
          "type": "address"
        }
      ],
      "name": "isAuditorAssigned",
      "outputs": [
        {
          "internalType": "bool",
          "name": "",
          "type": "bool"
        }
      ],
      "stateMutability": "view",
      "type": "function",
      "constant": true
    },
    {
      "inputs": [
        {
          "internalType": "uint256",
          "name": "auditId",
          "type": "uint256"
        },
        {
          "internalType": "uint256",
          "name": "auditResultId",
          "type": "uint256"
        },
        {
          "internalType": "address",
          "name": "auditor",
          "type": "address"
        },
        {
          "internalType": "bool",
          "name": "auditorResult",
          "type": "bool"
        }
      ],
      "name": "updateAuditResult",
      "outputs": [
        {
          "internalType": "bool",
          "name": "success",
          "type": "bool"
        }
      ],
      "stateMutability": "nonpayable",
      "type": "function"
    },
    {
      "inputs": [
        {
          "internalType": "uint256",
          "name": "auditId",
          "type": "uint256"
        },
        {
          "internalType": "uint256[]",
          "name": "auditorFees",
          "type": "uint256[]"
        },
        {
          "internalType": "bool[]",
          "name": "auditorFeePaid",
          "type": "bool[]"
        }
      ],
      "name": "updatePayments",
      "outputs": [],
      "stateMutability": "nonpayable",
      "type": "function"
    },
    {
      "inputs": [],
      "name": "fetchAuditAssignments",
      "outputs": [
        {
          "components": [
            {
              "internalType": "uint256",
              "name": "index",
              "type": "uint256"
            },
            {
              "internalType": "uint256",
              "name": "auditId",
              "type": "uint256"
            },
            {
              "internalType": "address[]",
              "name": "auditors",
              "type": "address[]"
            },
            {
              "internalType": "uint256[]",
              "name": "auditResultIds",
              "type": "uint256[]"
            },
            {
              "internalType": "uint256[]",
              "name": "auditorFees",
              "type": "uint256[]"
            },
            {
              "internalType": "bool[]",
              "name": "auditorFeePaid",
              "type": "bool[]"
            },
            {
              "internalType": "bool[]",
              "name": "auditorResults",
              "type": "bool[]"
            }
          ],
          "internalType": "struct AuditAssignments.AuditAssignmentData[]",
          "name": "",
          "type": "tuple[]"
        }
      ],
      "stateMutability": "view",
      "type": "function",
      "constant": true
    },
    {
      "inputs": [],
      "name": "getAuditAssignmentCount",
      "outputs": [
        {
          "internalType": "uint256",
          "name": "count",
          "type": "uint256"
        }
      ],
      "stateMutability": "view",
      "type": "function",
      "constant": true
    },
    {
      "inputs": [
        {
          "internalType": "uint256",
          "name": "index",
          "type": "uint256"
        }
      ],
      "name": "getAuditAssignmentAtIndex",
      "outputs": [
        {
          "internalType": "uint256",
          "name": "auditId",
          "type": "uint256"
        }
      ],
      "stateMutability": "view",
      "type": "function",
      "constant": true
    }
  ],
  "bytecode": "0x608060405234801561001057600080fd5b50612101806100206000396000f3fe608060405234801561001057600080fd5b50600436106100935760003560e01c8063e92f74e411610066578063e92f74e414610134578063f25d7f7814610164578063f2a0847d14610180578063f8edc10f1461019c578063fef4eddd146101cc57610093565b80632379ad8c14610098578063465d063c146100b657806397145b5a146100e6578063b23b33e314610116575b600080fd5b6100a06101fc565b6040516100ad9190611c23565b60405180910390f35b6100d060048036038101906100cb9190611679565b610209565b6040516100dd9190611ba6565b60405180910390f35b61010060048036038101906100fb9190611541565b6104c7565b60405161010d9190611c23565b60405180910390f35b61011e61055d565b60405161012b9190611b84565b60405180910390f35b61014e60048036038101906101499190611541565b6108e8565b60405161015b9190611ba6565b60405180910390f35b61017e600480360381019061017991906115fa565b610964565b005b61019a600480360381019061019591906115a6565b610a54565b005b6101b660048036038101906101b19190611541565b610e09565b6040516101c39190611c01565b60405180910390f35b6101e660048036038101906101e1919061156a565b611081565b6040516101f39190611ba6565b60405180910390f35b6000600180549050905090565b6000610214856108e8565b610253576040517f08c379a000000000000000000000000000000000000000000000000000000000815260040161024a90611bc1565b60405180910390fd5b600080600087815260200190815260200160002090506000816002018054806020026020016040519081016040528092919081815260200182805480156102ef57602002820191906000526020600020905b8160009054906101000a900473ffffffffffffffffffffffffffffffffffffffff1673ffffffffffffffffffffffffffffffffffffffff16815260200190600101908083116102a5575b5050505050905060005b81518110156104b7578573ffffffffffffffffffffffffffffffffffffffff16828281518110610352577f4e487b7100000000000000000000000000000000000000000000000000000000600052603260045260246000fd5b602002602001015173ffffffffffffffffffffffffffffffffffffffff1614156104a457866000808a815260200190815260200160002060030182815481106103c4577f4e487b7100000000000000000000000000000000000000000000000000000000600052603260045260246000fd5b9060005260206000200181905550846000808a81526020019081526020016000206006018281548110610420577f4e487b7100000000000000000000000000000000000000000000000000000000600052603260045260246000fd5b90600052602060002090602091828204019190066101000a81548160ff021916908315150217905550877f48d95fc2b88a5596ba2b2214428158fec66691b2c4ac4aadfb5554e7470c6c716000808b81526020019081526020016000206000015489604051610490929190611c9e565b60405180910390a2600193505050506104bf565b80806104af90611f56565b9150506102f9565b506000925050505b949350505050565b60006104d2816108e8565b610511576040517f08c379a000000000000000000000000000000000000000000000000000000000815260040161050890611bc1565b60405180910390fd5b6001828154811061054b577f4e487b7100000000000000000000000000000000000000000000000000000000600052603260045260246000fd5b90600052602060002001549050919050565b6060600061056b6002611145565b90506000808267ffffffffffffffff8111156105b0577f4e487b7100000000000000000000000000000000000000000000000000000000600052604160045260246000fd5b6040519080825280602002602001820160405280156105e957816020015b6105d6611169565b8152602001906001900390816105ce5790505b50905060005b838110156108de5760006001826106069190611e87565b905060008060008381526020019081526020016000209050806040518060e00160405290816000820154815260200160018201548152602001600282018054806020026020016040519081016040528092919081815260200182805480156106c357602002820191906000526020600020905b8160009054906101000a900473ffffffffffffffffffffffffffffffffffffffff1673ffffffffffffffffffffffffffffffffffffffff1681526020019060010190808311610679575b505050505081526020016003820180548060200260200160405190810160405280929190818152602001828054801561071b57602002820191906000526020600020905b815481526020019060010190808311610707575b505050505081526020016004820180548060200260200160405190810160405280929190818152602001828054801561077357602002820191906000526020600020905b81548152602001906001019080831161075f575b50505050508152602001600582018054806020026020016040519081016040528092919081815260200182805480156107f057602002820191906000526020600020906000905b82829054906101000a900460ff161515815260200190600101906020826000010492830192600103820291508084116107ba5790505b505050505081526020016006820180548060200260200160405190810160405280929190818152602001828054801561086d57602002820191906000526020600020906000905b82829054906101000a900460ff161515815260200190600101906020826000010492830192600103820291508084116108375790505b5050505050815250508486815181106108af577f4e487b7100000000000000000000000000000000000000000000000000000000600052603260045260246000fd5b60200260200101819052506001856108c79190611e87565b9450505080806108d690611f56565b9150506105ef565b5080935050505090565b6000806001805490501415610900576000905061095f565b8160016000808581526020019081526020016000206000015481548110610950577f4e487b7100000000000000000000000000000000000000000000000000000000600052603260045260246000fd5b90600052602060002001541490505b919050565b61096d836108e8565b6109ac576040517f08c379a00000000000000000000000000000000000000000000000000000000081526004016109a390611bc1565b60405180910390fd5b8160008085815260200190815260200160002060040190805190602001906109d59291906111a6565b508060008085815260200190815260200160002060050190805190602001906109ff9291906111f3565b50600080848152602001908152602001600020600001547f8ea16c06990444e80da7aae3f2b70b82ad9b9175eac4ee248ec1815eb1c0725b8484604051610a47929190611c6e565b60405180910390a2505050565b610a5d826108e8565b15610a9d576040517f08c379a0000000000000000000000000000000000000000000000000000000008152600401610a9490611be1565b60405180910390fd5b60008151905060008167ffffffffffffffff811115610ae5577f4e487b7100000000000000000000000000000000000000000000000000000000600052604160045260246000fd5b604051908082528060200260200182016040528015610b135781602001602082028036833780820191505090505b50905060008267ffffffffffffffff811115610b58577f4e487b7100000000000000000000000000000000000000000000000000000000600052604160045260246000fd5b604051908082528060200260200182016040528015610b865781602001602082028036833780820191505090505b50905060008367ffffffffffffffff811115610bcb577f4e487b7100000000000000000000000000000000000000000000000000000000600052604160045260246000fd5b604051908082528060200260200182016040528015610bf95781602001602082028036833780820191505090505b50905060008467ffffffffffffffff811115610c3e577f4e487b7100000000000000000000000000000000000000000000000000000000600052604160045260246000fd5b604051908082528060200260200182016040528015610c6c5781602001602082028036833780820191505090505b509050856000808981526020019081526020016000206002019080519060200190610c98929190611299565b50836000808981526020019081526020016000206006019080519060200190610cc29291906111f3565b50826000808981526020019081526020016000206003019080519060200190610cec9291906111a6565b50816000808981526020019081526020016000206004019080519060200190610d169291906111a6565b50806000808981526020019081526020016000206005019080519060200190610d409291906111f3565b5086600080898152602001908152602001600020600101819055506001879080600181540180825580915050600190039060005260206000200160009091909190915055610d8e6002611145565b60008089815260200190815260200160002060000181905550610db16002611153565b867f4f9675411eeb5421968dc1b23f97e9625825055ba5c9b10d7b21731b9f01a9136000808a81526020019081526020016000206000015488604051610df8929190611c3e565b60405180910390a250505050505050565b610e11611169565b6000808381526020019081526020016000206040518060e0016040529081600082015481526020016001820154815260200160028201805480602002602001604051908101604052809291908181526020018280548015610ec757602002820191906000526020600020905b8160009054906101000a900473ffffffffffffffffffffffffffffffffffffffff1673ffffffffffffffffffffffffffffffffffffffff1681526020019060010190808311610e7d575b5050505050815260200160038201805480602002602001604051908101604052809291908181526020018280548015610f1f57602002820191906000526020600020905b815481526020019060010190808311610f0b575b5050505050815260200160048201805480602002602001604051908101604052809291908181526020018280548015610f7757602002820191906000526020600020905b815481526020019060010190808311610f63575b5050505050815260200160058201805480602002602001604051908101604052809291908181526020018280548015610ff457602002820191906000526020600020906000905b82829054906101000a900460ff16151581526020019060010190602082600001049283019260010382029150808411610fbe5790505b505050505081526020016006820180548060200260200160405190810160405280929190818152602001828054801561107157602002820191906000526020600020906000905b82829054906101000a900460ff1615158152602001906001019060208260000104928301926001038202915080841161103b5790505b5050505050815250509050919050565b60008061108d84610e09565b905060008160400151905060005b8151811015611137578473ffffffffffffffffffffffffffffffffffffffff168282815181106110f4577f4e487b7100000000000000000000000000000000000000000000000000000000600052603260045260246000fd5b602002602001015173ffffffffffffffffffffffffffffffffffffffff161415611124576001935050505061113f565b808061112f90611f56565b91505061109b565b506000925050505b92915050565b600081600001549050919050565b6001816000016000828254019250508190555050565b6040518060e00160405280600081526020016000815260200160608152602001606081526020016060815260200160608152602001606081525090565b8280548282559060005260206000209081019282156111e2579160200282015b828111156111e15782518255916020019190600101906111c6565b5b5090506111ef9190611323565b5090565b82805482825590600052602060002090601f016020900481019282156112885791602002820160005b8382111561125957835183826101000a81548160ff021916908315150217905550926020019260010160208160000104928301926001030261121c565b80156112865782816101000a81549060ff0219169055600101602081600001049283019260010302611259565b505b5090506112959190611323565b5090565b828054828255906000526020600020908101928215611312579160200282015b828111156113115782518260006101000a81548173ffffffffffffffffffffffffffffffffffffffff021916908373ffffffffffffffffffffffffffffffffffffffff160217905550916020019190600101906112b9565b5b50905061131f9190611323565b5090565b5b8082111561133c576000816000905550600101611324565b5090565b600061135361134e84611cec565b611cc7565b9050808382526020820190508285602086028201111561137257600080fd5b60005b858110156113a257816113888882611484565b845260208401935060208301925050600181019050611375565b5050509392505050565b60006113bf6113ba84611d18565b611cc7565b905080838252602082019050828560208602820111156113de57600080fd5b60005b8581101561140e57816113f48882611517565b8452602084019350602083019250506001810190506113e1565b5050509392505050565b600061142b61142684611d44565b611cc7565b9050808382526020820190508285602086028201111561144a57600080fd5b60005b8581101561147a5781611460888261152c565b84526020840193506020830192505060018101905061144d565b5050509392505050565b60008135905061149381612086565b92915050565b600082601f8301126114aa57600080fd5b81356114ba848260208601611340565b91505092915050565b600082601f8301126114d457600080fd5b81356114e48482602086016113ac565b91505092915050565b600082601f8301126114fe57600080fd5b813561150e848260208601611418565b91505092915050565b6000813590506115268161209d565b92915050565b60008135905061153b816120b4565b92915050565b60006020828403121561155357600080fd5b60006115618482850161152c565b91505092915050565b6000806040838503121561157d57600080fd5b600061158b8582860161152c565b925050602061159c85828601611484565b9150509250929050565b600080604083850312156115b957600080fd5b60006115c78582860161152c565b925050602083013567ffffffffffffffff8111156115e457600080fd5b6115f085828601611499565b9150509250929050565b60008060006060848603121561160f57600080fd5b600061161d8682870161152c565b935050602084013567ffffffffffffffff81111561163a57600080fd5b611646868287016114ed565b925050604084013567ffffffffffffffff81111561166357600080fd5b61166f868287016114c3565b9150509250925092565b6000806000806080858703121561168f57600080fd5b600061169d8782880161152c565b94505060206116ae8782880161152c565b93505060406116bf87828801611484565b92505060606116d087828801611517565b91505092959194509250565b60006116e88383611738565b60208301905092915050565b60006117008383611992565b60208301905092915050565b600061171883836119f6565b905092915050565b600061172c8383611b66565b60208301905092915050565b61174181611edd565b82525050565b600061175282611db0565b61175c8185611e10565b935061176783611d70565b8060005b8381101561179857815161177f88826116dc565b975061178a83611ddc565b92505060018101905061176b565b5085935050505092915050565b60006117b082611db0565b6117ba8185611e21565b93506117c583611d70565b8060005b838110156117f65781516117dd88826116dc565b97506117e883611ddc565b9250506001810190506117c9565b5085935050505092915050565b600061180e82611dbb565b6118188185611e32565b935061182383611d80565b8060005b8381101561185457815161183b88826116f4565b975061184683611de9565b925050600181019050611827565b5085935050505092915050565b600061186c82611dc6565b6118768185611e43565b93508360208202850161188885611d90565b8060005b858110156118c457848403895281516118a5858261170c565b94506118b083611df6565b925060208a0199505060018101905061188c565b50829750879550505050505092915050565b60006118e182611dd1565b6118eb8185611e54565b93506118f683611da0565b8060005b8381101561192757815161190e8882611720565b975061191983611e03565b9250506001810190506118fa565b5085935050505092915050565b600061193f82611dd1565b6119498185611e65565b935061195483611da0565b8060005b8381101561198557815161196c8882611720565b975061197783611e03565b925050600181019050611958565b5085935050505092915050565b61199b81611eef565b82525050565b6119aa81611eef565b82525050565b60006119bd601783611e76565b91506119c88261200e565b602082019050919050565b60006119e0602783611e76565b91506119eb82612037565b604082019050919050565b600060e083016000830151611a0e6000860182611b66565b506020830151611a216020860182611b66565b5060408301518482036040860152611a398282611747565b91505060608301518482036060860152611a5382826118d6565b91505060808301518482036080860152611a6d82826118d6565b91505060a083015184820360a0860152611a878282611803565b91505060c083015184820360c0860152611aa18282611803565b9150508091505092915050565b600060e083016000830151611ac66000860182611b66565b506020830151611ad96020860182611b66565b5060408301518482036040860152611af18282611747565b91505060608301518482036060860152611b0b82826118d6565b91505060808301518482036080860152611b2582826118d6565b91505060a083015184820360a0860152611b3f8282611803565b91505060c083015184820360c0860152611b598282611803565b9150508091505092915050565b611b6f81611f1b565b82525050565b611b7e81611f1b565b82525050565b60006020820190508181036000830152611b9e8184611861565b905092915050565b6000602082019050611bbb60008301846119a1565b92915050565b60006020820190508181036000830152611bda816119b0565b9050919050565b60006020820190508181036000830152611bfa816119d3565b9050919050565b60006020820190508181036000830152611c1b8184611aae565b905092915050565b6000602082019050611c386000830184611b75565b92915050565b6000604082019050611c536000830185611b75565b8181036020830152611c6581846117a5565b90509392505050565b6000604082019050611c836000830185611b75565b8181036020830152611c958184611934565b90509392505050565b6000604082019050611cb36000830185611b75565b611cc06020830184611b75565b9392505050565b6000611cd1611ce2565b9050611cdd8282611f25565b919050565b6000604051905090565b600067ffffffffffffffff821115611d0757611d06611fce565b5b602082029050602081019050919050565b600067ffffffffffffffff821115611d3357611d32611fce565b5b602082029050602081019050919050565b600067ffffffffffffffff821115611d5f57611d5e611fce565b5b602082029050602081019050919050565b6000819050602082019050919050565b6000819050602082019050919050565b6000819050602082019050919050565b6000819050602082019050919050565b600081519050919050565b600081519050919050565b600081519050919050565b600081519050919050565b6000602082019050919050565b6000602082019050919050565b6000602082019050919050565b6000602082019050919050565b600082825260208201905092915050565b600082825260208201905092915050565b600082825260208201905092915050565b600082825260208201905092915050565b600082825260208201905092915050565b600082825260208201905092915050565b600082825260208201905092915050565b6000611e9282611f1b565b9150611e9d83611f1b565b9250827fffffffffffffffffffffffffffffffffffffffffffffffffffffffffffffffff03821115611ed257611ed1611f9f565b5b828201905092915050565b6000611ee882611efb565b9050919050565b60008115159050919050565b600073ffffffffffffffffffffffffffffffffffffffff82169050919050565b6000819050919050565b611f2e82611ffd565b810181811067ffffffffffffffff82111715611f4d57611f4c611fce565b5b80604052505050565b6000611f6182611f1b565b91507fffffffffffffffffffffffffffffffffffffffffffffffffffffffffffffffff821415611f9457611f93611f9f565b5b600182019050919050565b7f4e487b7100000000000000000000000000000000000000000000000000000000600052601160045260246000fd5b7f4e487b7100000000000000000000000000000000000000000000000000000000600052604160045260246000fd5b6000601f19601f8301169050919050565b7f417564697420496420646f6573206e6f74206578697374000000000000000000600082015250565b7f417564697420496420616c7265616479206578697374732c206d75737420757060008201527f6461746520697400000000000000000000000000000000000000000000000000602082015250565b61208f81611edd565b811461209a57600080fd5b50565b6120a681611eef565b81146120b157600080fd5b50565b6120bd81611f1b565b81146120c857600080fd5b5056fea264697066735822122085b0d362e0ffa7b13aaabf7d329b2e03bafaf72f8515e7b8653ed8e03554b7e664736f6c63430008030033",
  "immutableReferences": {},
  "source": "// SPDX-License-Identifier: MIT OR Apache-2.0\npragma solidity 0.8.3;\n\n/// @title Auditor Assignments for Decentralized Audits Smart Contracts\n/// @author Enrique R. D'Angelo\n/// @notice Once Auditors are enrolled then DAudit assigns them for performing the audits.\n/// The AuditAssignments Smart Contract encapsulates the logic for persisting the assignments and the assignments results.  \n/// @dev The Smart Contract uses a mapping of Audit Items (tokenId) to AuditAssignmentData Struct with audit results stored y arrays.\n/// Each element of the arrays are assignments storing the auditors (identified by their wallet addresses), audit results \n/// and payment statuses\n\nimport \"@openzeppelin/contracts/utils/Counters.sol\";\n//import \"hardhat/console.sol\";\n\ncontract AuditAssignments {\n  using Counters for Counters.Counter;\n\n  /* Struct containing information of the entity to be stored \n  * index = autonumber for the assignment (primary key)\n  * auditId = TokenId of the AuditItem\n  * auditors = Array containing the addresses of assigned auditors \n  * auditResultIds = Array containing the Audit Result token Ids of the results submitted by each auditor \n  * auditorFees = Array with amounts of fees paid to the auditors (in eth)\n  * auditorFeePaid = Array of boolean values indicating whether the auditor was paid or not.\n  * auditorResults = Array of boolean values indicating if the auditor indicated the audit results to Passed (true) or Failed (false)\n  *                   true  = Failed      - Auditor evaluation outcome determined that the audit failed\n  *                   false = Passed      - Auditor evaluation outcome determined that the audit was successful\n  */\n  struct AuditAssignmentData {\n    uint256 index;\n    uint256 auditId;\n    address[] auditors;\n    uint256[] auditResultIds;   \n    uint256[] auditorFees;\n    bool[] auditorFeePaid;\n    bool[] auditorResults;\n  }\n  \n  /* Mapping of uint to AuditAssignmentData where uint is the functional Key = tokenId = auditId */ \n  mapping(uint => AuditAssignmentData) private auditAssignments;\n\n  // Array of AuditItems -> tokenIds stored with Assignment Data (auditors assigned). \n  uint[] private auditAssignmentIndex; //index by tokenId\n  Counters.Counter private _indexCounter;\n\n  event LogNewAuditAssignment   (uint index, uint indexed auditId, address[] auditors);\n  event LogUpdateAuditAssignment(uint index, uint indexed auditId, address[] auditors);\n  event LogAddAssignedAuditor(uint index, uint indexed auditId, address auditor);\n  event LogUpdateAuditResult(uint index, uint indexed auditId, uint auditResultId);\n  event LogUpdatePayments(uint index, uint indexed auditId, uint[] auditFee);\n\n  /// @notice Finds if the system has assignments registered for the audit\n  /// @dev Used to check as required for certain functios assuming there is and audit struct already in place\n  /// @param auditId functional key of the audit Item tokenId = auditId\n  /// @return true if the audit has assignments, otherwise returns false\n  function isAuditAssigned(uint auditId)\n    public \n    view\n    returns(bool) \n  {\n    if(auditAssignmentIndex.length == 0) return false;\n    return (auditAssignmentIndex[auditAssignments[auditId].index] == auditId);\n  }\n\n  /// @notice Adds a set of auditors to a given audit item\n  /// @dev The (DAudit) uses this method to assign the result of the assignment processes\n  /// @param auditId functional key of the audit Item tokenId = auditId\n  /// @param _auditors array of auditors to be assigned to the audit item\n  function insertAuditAssignment(uint auditId, address[] memory _auditors ) public \n  {\n    // Requires that the audit has not been assigned before, once assigned must use update methods to change the state.\n    require(!isAuditAssigned(auditId), \"Audit Id already exists, must update it\");\n\n    // Creates the struct on-the-fly associated to the auditId and assigns the array of auditors\n    uint size = _auditors.length;\n    bool[] memory auditorResults = new bool[](size);\n    uint[] memory auditResultIds = new uint[](size);\n    uint[] memory auditorFees = new uint[](size);\n    bool[] memory auditorFeePaid = new bool[](size);\n\n    auditAssignments[auditId].auditors = _auditors;\n    auditAssignments[auditId].auditorResults = auditorResults;\n    auditAssignments[auditId].auditResultIds = auditResultIds;\n    auditAssignments[auditId].auditorFees = auditorFees;\n    auditAssignments[auditId].auditorFeePaid = auditorFeePaid;\n    auditAssignments[auditId].auditId = auditId;\n\n    // Adds the auditId to the list\n    auditAssignmentIndex.push(auditId); \n\n    //set the index being added with the autonumber\n    auditAssignments[auditId].index    = _indexCounter.current(); \n    \n    // increment the counter since que are adding an item\n    _indexCounter.increment(); \n    \n    // Emits the event indicating tha a new assignment of auditors was created nby the system\n    emit LogNewAuditAssignment(\n        auditAssignments[auditId].index,        \n        auditId, \n        _auditors);\n  }\n  \n  /// @notice Returns and auditor assignments information from a given audit item. \n  /// @dev raises an exception if the audit is not assigned\n  /// @param auditId functional key of the audit Item tokenId = auditId\n  /// @return AuditAssignmentData - Struct with the Audit Assignment Information \n  function getAuditAssignment(uint auditId)\n    public \n    view\n    //returns(uint index, address[] memory auditors) \n    returns(AuditAssignmentData memory)\n  {\n   // console.log(auditId) ;\n    //require(isAuditAssigned(auditId), \"Audit Id does not exist\");\n    return auditAssignments[auditId];\n  } \n\n  /// @notice Returns true if the auditor (address) is assigned to a given audit Item. \n  /// @param auditId functional key of the audit Item tokenId = auditId to be checked for assignemnt\n  /// @param auditor address of the auditor to check the assignemnt \n  /// @return true if the auditor is assigned to the audit item, false if no assigned to the audit item. \n  function isAuditorAssigned(uint auditId, address auditor) \n    public\n    view\n    returns(bool) \n  {\n    AuditAssignmentData memory aData = getAuditAssignment(auditId);\n    address[] memory auditors = aData.auditors;\n    for (uint256 i = 0; i < auditors.length; i++) {\n     if (auditors[i] == auditor) return true; // found the auditor in the assignment array\n    }\n    return false;/// loop without success then false\n  }\n\n  /// @notice Saves the audit results submitted by the auditor and associate the information to the audit item assignment. \n  /// @param auditId functional key of the AuditItem tokenId = auditId to be checked for assignemnt\n  /// @param auditResultId functional key of the AuditResult with the results evidence submitted by the auditor (AuditResult tokenId)  \n  /// @param auditor address of the auditor submitting the results \n  /// @param auditorResult boolean value indicating if the auditor indicated the audit results to Passed (true) or Failed (false)\n  /// @return success = true if the auditor is assigned to the audit item, false if no assigned to the audit item.\n  function updateAuditResult(uint auditId, uint auditResultId, address  auditor, bool auditorResult) \n    public\n    returns(bool success) \n  {\n    require(isAuditAssigned(auditId), \"Audit Id does not exist\");\n    AuditAssignmentData storage aData = auditAssignments[auditId];\n    address[] memory auditors = aData.auditors;\n    for (uint256 i = 0; i < auditors.length; i++) {\n     if (auditors[i] == auditor) {\n    // found the auditor in the assignment array, update the results data\n      auditAssignments[auditId].auditResultIds[i] = auditResultId; // audit Result Token\n      auditAssignments[auditId].auditorResults[i] = auditorResult; // Audit Outcome Success or Fail\n      emit LogUpdateAuditResult(\n      auditAssignments[auditId].index,\n      auditId, \n      auditResultId);\n      return true; \n     }\n    }\n    // loop without success then false\n    return false; \n  }\n\n  /// @notice Updates the payments done to an Audit Item.\n  /// @dev arrays must be in the same order of the addresses submitted when the audit was assigned \n  /// @param auditId functional key of the AuditItem tokenId = auditId to update the payments information\n  /// @param auditorFees  - array with the fee paid to each auditor \n  /// @param auditorFeePaid - array with boolean values indicating the fee was paid to the auditor or not. \n\n  function updatePayments(uint auditId, uint256[] memory auditorFees, bool[] memory auditorFeePaid) \n    public\n  {\n    require(isAuditAssigned(auditId), \"Audit Id does not exist\");\n    auditAssignments[auditId].auditorFees = auditorFees;\n    auditAssignments[auditId].auditorFeePaid = auditorFeePaid;\n\n    emit LogUpdatePayments(\n      auditId, \n      auditAssignments[auditId].index,\n      auditorFees);\n  }\n\n  /// @notice Retrieves the Audit Assignments.\n  /// @return Array of AuditAssignmentData - Struct with the Audit Assignment Information \n  function fetchAuditAssignments() public view returns (AuditAssignmentData[] memory) {\n    uint256 itemCount = _indexCounter.current();\n    uint256 currentIndex = 0;\n    // Creates a fixedLegth arrat with  the size of pending items count\n    AuditAssignmentData[] memory items = new AuditAssignmentData[](itemCount);\n    // Iterates the array and only add itemas with AuditItemStatus.Pending\n    for (uint256 i = 0; i < itemCount; i++) {\n            uint256 currentId = i + 1;\n            AuditAssignmentData storage currentItem = auditAssignments[\n                currentId\n            ];\n            items[currentIndex] = currentItem;\n            currentIndex += 1;\n        }\n    return items;\n    }\n\n  /// @notice Get the number of itemsm stored in the assignments array\n  /// @return count array lenght \n  function getAuditAssignmentCount() \n    public\n    view\n    returns(uint count)\n  {\n    return auditAssignmentIndex.length;\n  }\n\n  /// @notice Returns the AuditId assigned at a given primary key index\n  /// @return auditId of the Audit Item \n  function getAuditAssignmentAtIndex(uint index)\n    public\n    view\n    returns(uint auditId)\n  {\n    require(isAuditAssigned(auditId), \"Audit Id does not exist\");\n\n    return auditAssignmentIndex[index];\n  }\n}",
  "sourcePath": "/Users/enriquerafaeldangelo/consensys/blockchain-developer-bootcamp-final-project/contracts/AuditAssignments.sol",
  "compiler": {
    "name": "solc",
    "version": "0.8.3+commit.8d00100c.Emscripten.clang"
  },
  "schemaVersion": "3.4.3",
  "updatedAt": "2021-11-29T01:00:48.870Z",
  "networkType": "ethereum",
  "devdoc": {
    "kind": "dev",
    "methods": {
      "fetchAuditAssignments()": {
        "returns": {
          "_0": "Array of AuditAssignmentData - Struct with the Audit Assignment Information "
        }
      },
      "getAuditAssignment(uint256)": {
        "details": "raises an exception if the audit is not assigned",
        "params": {
          "auditId": "functional key of the audit Item tokenId = auditId"
        },
        "returns": {
          "_0": "AuditAssignmentData - Struct with the Audit Assignment Information "
        }
      },
      "getAuditAssignmentAtIndex(uint256)": {
        "returns": {
          "auditId": "of the Audit Item "
        }
      },
      "getAuditAssignmentCount()": {
        "returns": {
          "count": "array lenght "
        }
      },
      "insertAuditAssignment(uint256,address[])": {
        "details": "The (DAudit) uses this method to assign the result of the assignment processes",
        "params": {
          "_auditors": "array of auditors to be assigned to the audit item",
          "auditId": "functional key of the audit Item tokenId = auditId"
        }
      },
      "isAuditAssigned(uint256)": {
        "details": "Used to check as required for certain functios assuming there is and audit struct already in place",
        "params": {
          "auditId": "functional key of the audit Item tokenId = auditId"
        },
        "returns": {
          "_0": "true if the audit has assignments, otherwise returns false"
        }
      },
      "isAuditorAssigned(uint256,address)": {
        "params": {
          "auditId": "functional key of the audit Item tokenId = auditId to be checked for assignemnt",
          "auditor": "address of the auditor to check the assignemnt "
        },
        "returns": {
          "_0": "true if the auditor is assigned to the audit item, false if no assigned to the audit item. "
        }
      },
      "updateAuditResult(uint256,uint256,address,bool)": {
        "params": {
          "auditId": "functional key of the AuditItem tokenId = auditId to be checked for assignemnt",
          "auditResultId": "functional key of the AuditResult with the results evidence submitted by the auditor (AuditResult tokenId)  ",
          "auditor": "address of the auditor submitting the results ",
          "auditorResult": "boolean value indicating if the auditor indicated the audit results to Passed (true) or Failed (false)"
        },
        "returns": {
          "success": "= true if the auditor is assigned to the audit item, false if no assigned to the audit item."
        }
      },
      "updatePayments(uint256,uint256[],bool[])": {
        "details": "arrays must be in the same order of the addresses submitted when the audit was assigned ",
        "params": {
          "auditId": "functional key of the AuditItem tokenId = auditId to update the payments information",
          "auditorFeePaid": "- array with boolean values indicating the fee was paid to the auditor or not. ",
          "auditorFees": "- array with the fee paid to each auditor "
        }
      }
    },
    "version": 1
  },
  "userdoc": {
    "kind": "user",
    "methods": {
      "fetchAuditAssignments()": {
        "notice": "Retrieves the Audit Assignments."
      },
      "getAuditAssignment(uint256)": {
        "notice": "Returns and auditor assignments information from a given audit item. "
      },
      "getAuditAssignmentAtIndex(uint256)": {
        "notice": "Returns the AuditId assigned at a given primary key index"
      },
      "getAuditAssignmentCount()": {
        "notice": "Get the number of itemsm stored in the assignments array"
      },
      "insertAuditAssignment(uint256,address[])": {
        "notice": "Adds a set of auditors to a given audit item"
      },
      "isAuditAssigned(uint256)": {
        "notice": "Finds if the system has assignments registered for the audit"
      },
      "isAuditorAssigned(uint256,address)": {
        "notice": "Returns true if the auditor (address) is assigned to a given audit Item. "
      },
      "updateAuditResult(uint256,uint256,address,bool)": {
        "notice": "Saves the audit results submitted by the auditor and associate the information to the audit item assignment. "
      },
      "updatePayments(uint256,uint256[],bool[])": {
        "notice": "Updates the payments done to an Audit Item."
      }
    },
    "version": 1
  }
}