{
  "contractName": "AuditEnrollments",
  "abi": [
    {
      "anonymous": false,
      "inputs": [
        {
          "indexed": false,
          "internalType": "uint256",
          "name": "index",
          "type": "uint256"
        },
        {
          "indexed": true,
          "internalType": "uint256",
          "name": "auditId",
          "type": "uint256"
        },
        {
          "indexed": false,
          "internalType": "address",
          "name": "auditor",
          "type": "address"
        }
      ],
      "name": "LogAddEnrolledAuditor",
      "type": "event"
    },
    {
      "anonymous": false,
      "inputs": [
        {
          "indexed": false,
          "internalType": "uint256",
          "name": "index",
          "type": "uint256"
        },
        {
          "indexed": true,
          "internalType": "uint256",
          "name": "auditId",
          "type": "uint256"
        },
        {
          "indexed": false,
          "internalType": "address[]",
          "name": "auditors",
          "type": "address[]"
        }
      ],
      "name": "LogNewAuditEnrollment",
      "type": "event"
    },
    {
      "anonymous": false,
      "inputs": [
        {
          "indexed": false,
          "internalType": "uint256",
          "name": "index",
          "type": "uint256"
        },
        {
          "indexed": true,
          "internalType": "uint256",
          "name": "auditId",
          "type": "uint256"
        },
        {
          "indexed": false,
          "internalType": "address[]",
          "name": "auditors",
          "type": "address[]"
        }
      ],
      "name": "LogUpdateAuditEnrollment",
      "type": "event"
    },
    {
      "inputs": [
        {
          "internalType": "uint256",
          "name": "auditId",
          "type": "uint256"
        }
      ],
      "name": "isAuditEnrolled",
      "outputs": [
        {
          "internalType": "bool",
          "name": "",
          "type": "bool"
        }
      ],
      "stateMutability": "view",
      "type": "function",
      "constant": true
    },
    {
      "inputs": [
        {
          "internalType": "uint256",
          "name": "auditId",
          "type": "uint256"
        },
        {
          "internalType": "address[]",
          "name": "auditors",
          "type": "address[]"
        }
      ],
      "name": "insertAuditEnrollment",
      "outputs": [],
      "stateMutability": "nonpayable",
      "type": "function"
    },
    {
      "inputs": [
        {
          "internalType": "uint256",
          "name": "auditId",
          "type": "uint256"
        }
      ],
      "name": "getAuditEnrollment",
      "outputs": [
        {
          "components": [
            {
              "internalType": "address[]",
              "name": "auditors",
              "type": "address[]"
            },
            {
              "internalType": "uint256",
              "name": "auditId",
              "type": "uint256"
            },
            {
              "internalType": "uint256",
              "name": "index",
              "type": "uint256"
            }
          ],
          "internalType": "struct AuditEnrollments.AuditEnrollmentData",
          "name": "",
          "type": "tuple"
        }
      ],
      "stateMutability": "view",
      "type": "function",
      "constant": true
    },
    {
      "inputs": [
        {
          "internalType": "uint256",
          "name": "auditId",
          "type": "uint256"
        },
        {
          "internalType": "address[]",
          "name": "auditors",
          "type": "address[]"
        }
      ],
      "name": "updateauditors",
      "outputs": [
        {
          "internalType": "bool",
          "name": "success",
          "type": "bool"
        }
      ],
      "stateMutability": "nonpayable",
      "type": "function"
    },
    {
      "inputs": [
        {
          "internalType": "uint256",
          "name": "auditId",
          "type": "uint256"
        },
        {
          "internalType": "address",
          "name": "auditor",
          "type": "address"
        }
      ],
      "name": "addAuditor",
      "outputs": [
        {
          "internalType": "bool",
          "name": "success",
          "type": "bool"
        }
      ],
      "stateMutability": "nonpayable",
      "type": "function"
    },
    {
      "inputs": [],
      "name": "fetchAuditEnrollments",
      "outputs": [
        {
          "components": [
            {
              "internalType": "address[]",
              "name": "auditors",
              "type": "address[]"
            },
            {
              "internalType": "uint256",
              "name": "auditId",
              "type": "uint256"
            },
            {
              "internalType": "uint256",
              "name": "index",
              "type": "uint256"
            }
          ],
          "internalType": "struct AuditEnrollments.AuditEnrollmentData[]",
          "name": "",
          "type": "tuple[]"
        }
      ],
      "stateMutability": "view",
      "type": "function",
      "constant": true
    },
    {
      "inputs": [],
      "name": "getAuditEnrollmentCount",
      "outputs": [
        {
          "internalType": "uint256",
          "name": "count",
          "type": "uint256"
        }
      ],
      "stateMutability": "view",
      "type": "function",
      "constant": true
    },
    {
      "inputs": [
        {
          "internalType": "uint256",
          "name": "index",
          "type": "uint256"
        }
      ],
      "name": "getAuditEnrollmentAtIndex",
      "outputs": [
        {
          "internalType": "uint256",
          "name": "auditId",
          "type": "uint256"
        }
      ],
      "stateMutability": "view",
      "type": "function",
      "constant": true
    }
  ],
  "bytecode": "0x608060405234801561001057600080fd5b506114b8806100206000396000f3fe608060405234801561001057600080fd5b50600436106100885760003560e01c806386ed41061161005b57806386ed410614610127578063942915dd14610157578063afa6255e14610175578063b9e309c1146101a557610088565b80630e601b4f1461008d57806326673493146100a95780633351f910146100d95780635572293d14610109575b600080fd5b6100a760048036038101906100a29190610d0f565b6101d5565b005b6100c360048036038101906100be9190610caa565b61030b565b6040516100d091906110d3565b60405180910390f35b6100f360048036038101906100ee9190610caa565b610359565b6040516101009190611036565b60405180910390f35b6101116103d5565b60405161011e9190611014565b60405180910390f35b610141600480360381019061013c9190610d0f565b6105b6565b60405161014e9190611036565b60405180910390f35b61015f610683565b60405161016c91906110d3565b60405180910390f35b61018f600480360381019061018a9190610cd3565b610690565b60405161019c9190611036565b60405180910390f35b6101bf60048036038101906101ba9190610caa565b6109e8565b6040516101cc91906110b1565b60405180910390f35b6101de82610359565b1561021e576040517f08c379a000000000000000000000000000000000000000000000000000000000815260040161021590611091565b60405180910390fd5b806000808481526020019081526020016000206000019080519060200190610247929190610b22565b50816000808481526020019081526020016000206001018190555060018290806001815401808255809150506001900390600052602060002001600090919091909150556102956002610afe565b600080848152602001908152602001600020600201819055506102b86002610b0c565b817f69f7697be43cf014b04ce2617aad02b01eb89b7d2c1d7344161ec7a30f50f23960008085815260200190815260200160002060020154836040516102ff929190611117565b60405180910390a25050565b600060018281548110610347577f4e487b7100000000000000000000000000000000000000000000000000000000600052603260045260246000fd5b90600052602060002001549050919050565b600080600180549050141561037157600090506103d0565b81600160008085815260200190815260200160002060020154815481106103c1577f4e487b7100000000000000000000000000000000000000000000000000000000600052603260045260246000fd5b90600052602060002001541490505b919050565b606060006103e36002610afe565b90506000808267ffffffffffffffff811115610428577f4e487b7100000000000000000000000000000000000000000000000000000000600052604160045260246000fd5b60405190808252806020026020018201604052801561046157816020015b61044e610bac565b8152602001906001900390816104465790505b50905060005b838110156105ac57600060018261047e919061122c565b905060008060008381526020019081526020016000209050806040518060600160405290816000820180548060200260200160405190810160405280929190818152602001828054801561052757602002820191906000526020600020905b8160009054906101000a900473ffffffffffffffffffffffffffffffffffffffff1673ffffffffffffffffffffffffffffffffffffffff16815260200190600101908083116104dd575b505050505081526020016001820154815260200160028201548152505084868151811061057d577f4e487b7100000000000000000000000000000000000000000000000000000000600052603260045260246000fd5b6020026020010181905250600185610595919061122c565b9450505080806105a4906112fb565b915050610467565b5080935050505090565b60006105c183610359565b610600576040517f08c379a00000000000000000000000000000000000000000000000000000000081526004016105f790611051565b60405180910390fd5b816000808581526020019081526020016000206000019080519060200190610629929190610b22565b50600080848152602001908152602001600020600201547f56d0a276ae3077b871c06c0bab85fec87f3344f3e6dcab8d9edfe377d71b046b8484604051610671929190611117565b60405180910390a26001905092915050565b6000600180549050905090565b600061069b83610359565b1561089a5760008080600086815260200190815260200160002060000180548060200260200160405190810160405280929190818152602001828054801561073857602002820191906000526020600020905b8160009054906101000a900473ffffffffffffffffffffffffffffffffffffffff1673ffffffffffffffffffffffffffffffffffffffff16815260200190600101908083116106ee575b5050505050905060005b81518110156107db578473ffffffffffffffffffffffffffffffffffffffff1682828151811061079b577f4e487b7100000000000000000000000000000000000000000000000000000000600052603260045260246000fd5b602002602001015173ffffffffffffffffffffffffffffffffffffffff1614156107c857600192506107db565b80806107d3906112fb565b915050610742565b50811561081d576040517f08c379a000000000000000000000000000000000000000000000000000000000815260040161081490611071565b60405180910390fd5b600080868152602001908152602001600020600001849080600181540180825580915050600190039060005260206000200160009091909190916101000a81548173ffffffffffffffffffffffffffffffffffffffff021916908373ffffffffffffffffffffffffffffffffffffffff160217905550505061098f565b6000600167ffffffffffffffff8111156108dd577f4e487b7100000000000000000000000000000000000000000000000000000000600052604160045260246000fd5b60405190808252806020026020018201604052801561090b5781602001602082028036833780820191505090505b5090508281600081518110610949577f4e487b7100000000000000000000000000000000000000000000000000000000600052603260045260246000fd5b602002602001019073ffffffffffffffffffffffffffffffffffffffff16908173ffffffffffffffffffffffffffffffffffffffff168152505061098d84826101d5565b505b600080848152602001908152602001600020600201547f5d4ce133de30c9f772ca1690f823adee215cd140a05d4ce255e1533c6d9fab0784846040516109d69291906110ee565b60405180910390a26001905092915050565b6109f0610bac565b6109f982610359565b610a38576040517f08c379a0000000000000000000000000000000000000000000000000000000008152600401610a2f90611051565b60405180910390fd5b60008083815260200190815260200160002060405180606001604052908160008201805480602002602001604051908101604052809291908181526020018280548015610ada57602002820191906000526020600020905b8160009054906101000a900473ffffffffffffffffffffffffffffffffffffffff1673ffffffffffffffffffffffffffffffffffffffff1681526020019060010190808311610a90575b50505050508152602001600182015481526020016002820154815250509050919050565b600081600001549050919050565b6001816000016000828254019250508190555050565b828054828255906000526020600020908101928215610b9b579160200282015b82811115610b9a5782518260006101000a81548173ffffffffffffffffffffffffffffffffffffffff021916908373ffffffffffffffffffffffffffffffffffffffff16021790555091602001919060010190610b42565b5b509050610ba89190610bcd565b5090565b60405180606001604052806060815260200160008152602001600081525090565b5b80821115610be6576000816000905550600101610bce565b5090565b6000610bfd610bf88461116c565b611147565b90508083825260208201905082856020860282011115610c1c57600080fd5b60005b85811015610c4c5781610c328882610c56565b845260208401935060208301925050600181019050610c1f565b5050509392505050565b600081359050610c6581611454565b92915050565b600082601f830112610c7c57600080fd5b8135610c8c848260208601610bea565b91505092915050565b600081359050610ca48161146b565b92915050565b600060208284031215610cbc57600080fd5b6000610cca84828501610c95565b91505092915050565b60008060408385031215610ce657600080fd5b6000610cf485828601610c95565b9250506020610d0585828601610c56565b9150509250929050565b60008060408385031215610d2257600080fd5b6000610d3085828601610c95565b925050602083013567ffffffffffffffff811115610d4d57600080fd5b610d5985828601610c6b565b9150509250929050565b6000610d6f8383610d8f565b60208301905092915050565b6000610d878383610f56565b905092915050565b610d9881611282565b82525050565b610da781611282565b82525050565b6000610db8826111b8565b610dc281856111e8565b9350610dcd83611198565b8060005b83811015610dfe578151610de58882610d63565b9750610df0836111ce565b925050600181019050610dd1565b5085935050505092915050565b6000610e16826111b8565b610e2081856111f9565b9350610e2b83611198565b8060005b83811015610e5c578151610e438882610d63565b9750610e4e836111ce565b925050600181019050610e2f565b5085935050505092915050565b6000610e74826111c3565b610e7e818561120a565b935083602082028501610e90856111a8565b8060005b85811015610ecc5784840389528151610ead8582610d7b565b9450610eb8836111db565b925060208a01995050600181019050610e94565b50829750879550505050505092915050565b610ee781611294565b82525050565b6000610efa60178361121b565b9150610f05826113b3565b602082019050919050565b6000610f1d60188361121b565b9150610f28826113dc565b602082019050919050565b6000610f4060278361121b565b9150610f4b82611405565b604082019050919050565b60006060830160008301518482036000860152610f738282610dad565b9150506020830151610f886020860182610ff6565b506040830151610f9b6040860182610ff6565b508091505092915050565b60006060830160008301518482036000860152610fc38282610dad565b9150506020830151610fd86020860182610ff6565b506040830151610feb6040860182610ff6565b508091505092915050565b610fff816112c0565b82525050565b61100e816112c0565b82525050565b6000602082019050818103600083015261102e8184610e69565b905092915050565b600060208201905061104b6000830184610ede565b92915050565b6000602082019050818103600083015261106a81610eed565b9050919050565b6000602082019050818103600083015261108a81610f10565b9050919050565b600060208201905081810360008301526110aa81610f33565b9050919050565b600060208201905081810360008301526110cb8184610fa6565b905092915050565b60006020820190506110e86000830184611005565b92915050565b60006040820190506111036000830185611005565b6111106020830184610d9e565b9392505050565b600060408201905061112c6000830185611005565b818103602083015261113e8184610e0b565b90509392505050565b6000611151611162565b905061115d82826112ca565b919050565b6000604051905090565b600067ffffffffffffffff82111561118757611186611373565b5b602082029050602081019050919050565b6000819050602082019050919050565b6000819050602082019050919050565b600081519050919050565b600081519050919050565b6000602082019050919050565b6000602082019050919050565b600082825260208201905092915050565b600082825260208201905092915050565b600082825260208201905092915050565b600082825260208201905092915050565b6000611237826112c0565b9150611242836112c0565b9250827fffffffffffffffffffffffffffffffffffffffffffffffffffffffffffffffff0382111561127757611276611344565b5b828201905092915050565b600061128d826112a0565b9050919050565b60008115159050919050565b600073ffffffffffffffffffffffffffffffffffffffff82169050919050565b6000819050919050565b6112d3826113a2565b810181811067ffffffffffffffff821117156112f2576112f1611373565b5b80604052505050565b6000611306826112c0565b91507fffffffffffffffffffffffffffffffffffffffffffffffffffffffffffffffff82141561133957611338611344565b5b600182019050919050565b7f4e487b7100000000000000000000000000000000000000000000000000000000600052601160045260246000fd5b7f4e487b7100000000000000000000000000000000000000000000000000000000600052604160045260246000fd5b6000601f19601f8301169050919050565b7f417564697420496420646f6573206e6f74206578697374000000000000000000600082015250565b7f41756469746f7220616c726561647920656e726f6c6c65640000000000000000600082015250565b7f417564697420496420616c7265616479206578697374732c206d75737420757060008201527f6461746520697400000000000000000000000000000000000000000000000000602082015250565b61145d81611282565b811461146857600080fd5b50565b611474816112c0565b811461147f57600080fd5b5056fea2646970667358221220541fde6db6294cdd8218edbc8eeeca2e4151027d3597c400272ff03630b698df64736f6c63430008030033",
  "immutableReferences": {},
  "source": "// SPDX-License-Identifier: MIT OR Apache-2.0\npragma solidity 0.8.3;\n\nimport \"@openzeppelin/contracts/utils/Counters.sol\";\n//import \"hardhat/console.sol\";\n\n/// @title Auditor Enrollments for Decentralized Audits Smart Contracts\n/// @author Enrique R. D'Angelo\n/// @notice Auditors are enrolled for participating in audits submitted by producers. DAudit assigns them randomly for performing the audits.\n/// The AuditEnrollments Smart Contract encapsulates the logic for persisting the enrollments of auditors to the audit items.  \n/// @dev The Smart Contract uses a mapping of Audit Items (tokenId) to AuditEnrollemntData Struct with the auditId and \n/// an array of auditors enrolled to the audit item. The array stores the auditors enrolled identified by their wallet addresses\n\ncontract AuditEnrollments {\n  using Counters for Counters.Counter;\n  \n  /* Struct containing informaction of the entity to be stored \n  * Addresses of enrolled auditors\n  * AuditId = TokenId of the AuditItem\n  * index = autonumber for the enrollment\n  */\n  struct AuditEnrollmentData {\n    address[] auditors;\n    uint auditId;\n    uint index;\n  }\n  \n  /* Mapping of struts uint to AuditEnrollmentData where uint is the functional Key = tokenId */ \n  mapping(uint => AuditEnrollmentData) private auditEnrollments;\n\n  // Array of AuditItems -> tokenIds stored with Enrollment Data (auditors assigned). \n  uint[] private auditEnrollmentIndex; //index by tokenId\n  Counters.Counter private _indexCounter;\n\n  event LogNewAuditEnrollment   (uint index, uint indexed auditId, address[] auditors);\n  event LogUpdateAuditEnrollment(uint index, uint indexed auditId, address[] auditors);\n  event LogAddEnrolledAuditor(uint index, uint indexed auditId, address auditor);\n\n  /// @notice Finds if the system has enrollments registered for the audit item\n  /// @dev Used to check as required for certain functions assuming there is and enrollment struct already in place\n  /// @param auditId functional key of the audit Item tokenId = auditId\n  /// @return true if the audit has enrollments, otherwise returns false\n  function isAuditEnrolled(uint auditId)\n    public \n    view\n    returns(bool) \n  {\n    if(auditEnrollmentIndex.length == 0) return false;\n    return (auditEnrollmentIndex[auditEnrollments[auditId].index] == auditId);\n  }\n\n  /// @notice Adds a set of auditors enrolled to a given audit item\n  /// @param auditId functional key of the audit Item tokenId = auditId\n  /// @param auditors array of auditors enrolled to the audit item\n  function insertAuditEnrollment(uint auditId, address[] memory auditors ) public \n  {\n    require(!isAuditEnrolled(auditId), \"Audit Id already exists, must update it\");\n    // Creates the struct on-the-fly associated to the auditId and assigns the array of auditors\n    auditEnrollments[auditId].auditors = auditors;\n    auditEnrollments[auditId].auditId = auditId;\n    auditEnrollmentIndex.push(auditId); // Adds the auditId to the list\n    auditEnrollments[auditId].index    = _indexCounter.current(); //set the index being added with the autonumber\n    _indexCounter.increment(); // increment the counter since que are adding an item\n    \n    emit LogNewAuditEnrollment(\n        auditEnrollments[auditId].index,        \n        auditId, \n        auditors);\n  }\n\n\n /// @notice Returns and auditor enrollment struct data for a give auditId\n /// @param auditId functional key of the audit Item tokenId = auditId\n  function getAuditEnrollment(uint auditId)\n    public \n    view\n    //returns(uint index, address[] memory auditors) \n    returns(AuditEnrollmentData memory)\n  {\n    require(isAuditEnrolled(auditId), \"Audit Id does not exist\");\n    return auditEnrollments[auditId];\n  } \n  \n  /// @notice Updates the whole list of auditors enrolled to an auditId\n  /// @param auditId functional key of the audit Item tokenId = auditId\n  /// @return success true the systme was able to update the audit enrollments, otherwise returns false\n  function updateauditors(uint auditId, address[] memory auditors) \n    public\n    returns(bool success) \n  {\n    require(isAuditEnrolled(auditId), \"Audit Id does not exist\");\n    auditEnrollments[auditId].auditors = auditors;\n    emit LogUpdateAuditEnrollment(\n      auditId, \n      auditEnrollments[auditId].index,\n      auditors);\n    return true;\n  }\n  \n  /// @notice Adds an auditor to the enrolled auditors list\n  /// @param auditId functional key of the audit Item tokenId = auditId\n  /// @param auditor address of the auditor being added to the audit enrollments  \n  /// @return success true the systme was able to add the auditor to the audit enrollments, otherwise returns false\n  function addAuditor(uint auditId, address auditor) \n    public\n    returns(bool success) \n  {\n    if(isAuditEnrolled(auditId)) {\n      bool alreadyEnrolled = false;\n      address[] memory auditorsEnrolled = auditEnrollments[auditId].auditors;\n\n      for (uint256 i = 0; i < auditorsEnrolled.length; i++) {\n        if (auditorsEnrolled[i] == auditor) {\n        alreadyEnrolled = true;\n        break; // found the auditor in the assignment array \n        }      \n      }\n      require(!alreadyEnrolled,\"Auditor already enrolled\");\n      auditEnrollments[auditId].auditors.push(auditor);\n    } \n    else {\n        address[] memory auditors = new address[](1);\n        auditors[0] = auditor;\n        insertAuditEnrollment(auditId, auditors);\n    }\n    emit LogAddEnrolledAuditor(\n      auditId, \n      auditEnrollments[auditId].index,\n      auditor);\n    return true;\n  }\n\n  /// @notice Retrieves the Audit Enrollments.\n  /// @return Array of AuditEnrollmentData - Struct with the Audit Enrollment Information \n  function fetchAuditEnrollments() public view returns (AuditEnrollmentData[] memory) {\n    uint256 itemCount = _indexCounter.current();\n    uint256 currentIndex = 0;\n    // Creates a fixedLegth arrat with  the size of pending items count\n    AuditEnrollmentData[] memory items = new AuditEnrollmentData[](itemCount);\n    // Iterates the array and only add itemas with AuditItemStatus.Pending\n    for (uint256 i = 0; i < itemCount; i++) {\n            uint256 currentId = i + 1;\n            AuditEnrollmentData storage currentItem = auditEnrollments[\n                currentId\n            ];\n            items[currentIndex] = currentItem;\n            currentIndex += 1;\n        }\n    return items;\n  }\n\n  /// @notice Get the number of items stored in the enrollments array\n  /// @return count array lenght \n  function getAuditEnrollmentCount() \n    public\n    view\n    returns(uint count)\n  {\n    return auditEnrollmentIndex.length;\n  }\n\n  /// @notice Returns the AuditId enrolled at a given primary key index\n  /// @return auditId of the Audit Item \n  function getAuditEnrollmentAtIndex(uint index)\n    public\n    view\n    returns(uint auditId)\n  {\n    return auditEnrollmentIndex[index];\n  }\n\n}\n",
  "sourcePath": "/Users/enriquerafaeldangelo/consensys/blockchain-developer-bootcamp-final-project/contracts/AuditEnrollments.sol",
  "compiler": {
    "name": "solc",
    "version": "0.8.3+commit.8d00100c.Emscripten.clang"
  },
  "schemaVersion": "3.4.3",
  "updatedAt": "2021-11-29T01:00:48.883Z",
  "networkType": "ethereum",
  "devdoc": {
    "author": "Enrique R. D'Angelo",
    "details": "The Smart Contract uses a mapping of Audit Items (tokenId) to AuditEnrollemntData Struct with the auditId and  an array of auditors enrolled to the audit item. The array stores the auditors enrolled identified by their wallet addresses",
    "kind": "dev",
    "methods": {
      "addAuditor(uint256,address)": {
        "params": {
          "auditId": "functional key of the audit Item tokenId = auditId",
          "auditor": "address of the auditor being added to the audit enrollments  "
        },
        "returns": {
          "success": "true the systme was able to add the auditor to the audit enrollments, otherwise returns false"
        }
      },
      "fetchAuditEnrollments()": {
        "returns": {
          "_0": "Array of AuditEnrollmentData - Struct with the Audit Enrollment Information "
        }
      },
      "getAuditEnrollment(uint256)": {
        "params": {
          "auditId": "functional key of the audit Item tokenId = auditId"
        }
      },
      "getAuditEnrollmentAtIndex(uint256)": {
        "returns": {
          "auditId": "of the Audit Item "
        }
      },
      "getAuditEnrollmentCount()": {
        "returns": {
          "count": "array lenght "
        }
      },
      "insertAuditEnrollment(uint256,address[])": {
        "params": {
          "auditId": "functional key of the audit Item tokenId = auditId",
          "auditors": "array of auditors enrolled to the audit item"
        }
      },
      "isAuditEnrolled(uint256)": {
        "details": "Used to check as required for certain functions assuming there is and enrollment struct already in place",
        "params": {
          "auditId": "functional key of the audit Item tokenId = auditId"
        },
        "returns": {
          "_0": "true if the audit has enrollments, otherwise returns false"
        }
      },
      "updateauditors(uint256,address[])": {
        "params": {
          "auditId": "functional key of the audit Item tokenId = auditId"
        },
        "returns": {
          "success": "true the systme was able to update the audit enrollments, otherwise returns false"
        }
      }
    },
    "title": "Auditor Enrollments for Decentralized Audits Smart Contracts",
    "version": 1
  },
  "userdoc": {
    "kind": "user",
    "methods": {
      "addAuditor(uint256,address)": {
        "notice": "Adds an auditor to the enrolled auditors list"
      },
      "fetchAuditEnrollments()": {
        "notice": "Retrieves the Audit Enrollments."
      },
      "getAuditEnrollment(uint256)": {
        "notice": "Returns and auditor enrollment struct data for a give auditId"
      },
      "getAuditEnrollmentAtIndex(uint256)": {
        "notice": "Returns the AuditId enrolled at a given primary key index"
      },
      "getAuditEnrollmentCount()": {
        "notice": "Get the number of items stored in the enrollments array"
      },
      "insertAuditEnrollment(uint256,address[])": {
        "notice": "Adds a set of auditors enrolled to a given audit item"
      },
      "isAuditEnrolled(uint256)": {
        "notice": "Finds if the system has enrollments registered for the audit item"
      },
      "updateauditors(uint256,address[])": {
        "notice": "Updates the whole list of auditors enrolled to an auditId"
      }
    },
    "notice": "Auditors are enrolled for participating in audits submitted by producers. DAudit assigns them randomly for performing the audits. The AuditEnrollments Smart Contract encapsulates the logic for persisting the enrollments of auditors to the audit items.  ",
    "version": 1
  }
}