{
  "contractName": "DAudit",
  "abi": [
    {
      "inputs": [
        {
          "internalType": "address",
          "name": "_auditEnrollmentsAddr",
          "type": "address"
        },
        {
          "internalType": "address",
          "name": "_auditAssignmentsAddr",
          "type": "address"
        }
      ],
      "stateMutability": "nonpayable",
      "type": "constructor"
    },
    {
      "anonymous": false,
      "inputs": [
        {
          "indexed": true,
          "internalType": "uint256",
          "name": "itemId",
          "type": "uint256"
        },
        {
          "indexed": true,
          "internalType": "address",
          "name": "nftContract",
          "type": "address"
        },
        {
          "indexed": true,
          "internalType": "uint256",
          "name": "tokenId",
          "type": "uint256"
        },
        {
          "indexed": false,
          "internalType": "address",
          "name": "producer",
          "type": "address"
        },
        {
          "indexed": false,
          "internalType": "address",
          "name": "owner",
          "type": "address"
        },
        {
          "indexed": false,
          "internalType": "uint256",
          "name": "auditFee",
          "type": "uint256"
        },
        {
          "indexed": false,
          "internalType": "uint256",
          "name": "listingFee",
          "type": "uint256"
        },
        {
          "indexed": false,
          "internalType": "uint8",
          "name": "auditorReq",
          "type": "uint8"
        },
        {
          "indexed": false,
          "internalType": "enum DAudit.AuditItemStatus",
          "name": "auditItemStatus",
          "type": "uint8"
        }
      ],
      "name": "AuditItemCreated",
      "type": "event"
    },
    {
      "anonymous": false,
      "inputs": [
        {
          "indexed": true,
          "internalType": "uint256",
          "name": "auditItemId",
          "type": "uint256"
        },
        {
          "indexed": true,
          "internalType": "uint256",
          "name": "tokenIdResult",
          "type": "uint256"
        },
        {
          "indexed": false,
          "internalType": "enum DAudit.AuditResult",
          "name": "auditResult",
          "type": "uint8"
        }
      ],
      "name": "AuditResultCreated",
      "type": "event"
    },
    {
      "anonymous": false,
      "inputs": [
        {
          "indexed": true,
          "internalType": "uint256",
          "name": "auditId",
          "type": "uint256"
        },
        {
          "indexed": true,
          "internalType": "uint256",
          "name": "auditItemId",
          "type": "uint256"
        },
        {
          "indexed": true,
          "internalType": "uint256",
          "name": "tokenIdResult",
          "type": "uint256"
        },
        {
          "indexed": false,
          "internalType": "uint256",
          "name": "auditorFee",
          "type": "uint256"
        }
      ],
      "name": "AuditResultPaid",
      "type": "event"
    },
    {
      "inputs": [],
      "name": "getListingFee",
      "outputs": [
        {
          "internalType": "uint256",
          "name": "",
          "type": "uint256"
        }
      ],
      "stateMutability": "view",
      "type": "function",
      "constant": true
    },
    {
      "inputs": [
        {
          "internalType": "uint256",
          "name": "_listingFee",
          "type": "uint256"
        }
      ],
      "name": "setListingFee",
      "outputs": [],
      "stateMutability": "nonpayable",
      "type": "function"
    },
    {
      "inputs": [
        {
          "internalType": "uint256",
          "name": "_auditFee",
          "type": "uint256"
        }
      ],
      "name": "calculateProducerFee",
      "outputs": [
        {
          "internalType": "uint256",
          "name": "",
          "type": "uint256"
        }
      ],
      "stateMutability": "view",
      "type": "function",
      "constant": true
    },
    {
      "inputs": [
        {
          "internalType": "address",
          "name": "nftContract",
          "type": "address"
        },
        {
          "internalType": "uint256",
          "name": "tokenId",
          "type": "uint256"
        },
        {
          "internalType": "uint256",
          "name": "auditFee",
          "type": "uint256"
        },
        {
          "internalType": "uint8",
          "name": "auditorsReq",
          "type": "uint8"
        }
      ],
      "name": "createAuditItem",
      "outputs": [],
      "stateMutability": "payable",
      "type": "function",
      "payable": true
    },
    {
      "inputs": [],
      "name": "fetchPendingAudits",
      "outputs": [
        {
          "components": [
            {
              "internalType": "uint256",
              "name": "itemId",
              "type": "uint256"
            },
            {
              "internalType": "address",
              "name": "nftContract",
              "type": "address"
            },
            {
              "internalType": "uint256",
              "name": "tokenId",
              "type": "uint256"
            },
            {
              "internalType": "address payable",
              "name": "producer",
              "type": "address"
            },
            {
              "internalType": "address payable",
              "name": "owner",
              "type": "address"
            },
            {
              "internalType": "uint256",
              "name": "auditFee",
              "type": "uint256"
            },
            {
              "internalType": "uint256",
              "name": "listingFee",
              "type": "uint256"
            },
            {
              "internalType": "uint8",
              "name": "auditorReq",
              "type": "uint8"
            },
            {
              "internalType": "enum DAudit.AuditItemStatus",
              "name": "auditItemStatus",
              "type": "uint8"
            }
          ],
          "internalType": "struct DAudit.AuditItemData[]",
          "name": "",
          "type": "tuple[]"
        }
      ],
      "stateMutability": "view",
      "type": "function",
      "constant": true
    },
    {
      "inputs": [],
      "name": "fetchAudits",
      "outputs": [
        {
          "components": [
            {
              "internalType": "uint256",
              "name": "itemId",
              "type": "uint256"
            },
            {
              "internalType": "address",
              "name": "nftContract",
              "type": "address"
            },
            {
              "internalType": "uint256",
              "name": "tokenId",
              "type": "uint256"
            },
            {
              "internalType": "address payable",
              "name": "producer",
              "type": "address"
            },
            {
              "internalType": "address payable",
              "name": "owner",
              "type": "address"
            },
            {
              "internalType": "uint256",
              "name": "auditFee",
              "type": "uint256"
            },
            {
              "internalType": "uint256",
              "name": "listingFee",
              "type": "uint256"
            },
            {
              "internalType": "uint8",
              "name": "auditorReq",
              "type": "uint8"
            },
            {
              "internalType": "enum DAudit.AuditItemStatus",
              "name": "auditItemStatus",
              "type": "uint8"
            }
          ],
          "internalType": "struct DAudit.AuditItemData[]",
          "name": "",
          "type": "tuple[]"
        }
      ],
      "stateMutability": "view",
      "type": "function",
      "constant": true
    },
    {
      "inputs": [],
      "name": "fetchItemsProducer",
      "outputs": [
        {
          "components": [
            {
              "internalType": "uint256",
              "name": "itemId",
              "type": "uint256"
            },
            {
              "internalType": "address",
              "name": "nftContract",
              "type": "address"
            },
            {
              "internalType": "uint256",
              "name": "tokenId",
              "type": "uint256"
            },
            {
              "internalType": "address payable",
              "name": "producer",
              "type": "address"
            },
            {
              "internalType": "address payable",
              "name": "owner",
              "type": "address"
            },
            {
              "internalType": "uint256",
              "name": "auditFee",
              "type": "uint256"
            },
            {
              "internalType": "uint256",
              "name": "listingFee",
              "type": "uint256"
            },
            {
              "internalType": "uint8",
              "name": "auditorReq",
              "type": "uint8"
            },
            {
              "internalType": "enum DAudit.AuditItemStatus",
              "name": "auditItemStatus",
              "type": "uint8"
            }
          ],
          "internalType": "struct DAudit.AuditItemData[]",
          "name": "",
          "type": "tuple[]"
        }
      ],
      "stateMutability": "view",
      "type": "function",
      "constant": true
    },
    {
      "inputs": [
        {
          "internalType": "uint256",
          "name": "tokenId",
          "type": "uint256"
        }
      ],
      "name": "fetchAuditByTokenId",
      "outputs": [
        {
          "components": [
            {
              "internalType": "uint256",
              "name": "itemId",
              "type": "uint256"
            },
            {
              "internalType": "address",
              "name": "nftContract",
              "type": "address"
            },
            {
              "internalType": "uint256",
              "name": "tokenId",
              "type": "uint256"
            },
            {
              "internalType": "address payable",
              "name": "producer",
              "type": "address"
            },
            {
              "internalType": "address payable",
              "name": "owner",
              "type": "address"
            },
            {
              "internalType": "uint256",
              "name": "auditFee",
              "type": "uint256"
            },
            {
              "internalType": "uint256",
              "name": "listingFee",
              "type": "uint256"
            },
            {
              "internalType": "uint8",
              "name": "auditorReq",
              "type": "uint8"
            },
            {
              "internalType": "enum DAudit.AuditItemStatus",
              "name": "auditItemStatus",
              "type": "uint8"
            }
          ],
          "internalType": "struct DAudit.AuditItemData",
          "name": "",
          "type": "tuple"
        }
      ],
      "stateMutability": "view",
      "type": "function",
      "constant": true
    },
    {
      "inputs": [
        {
          "internalType": "uint256",
          "name": "tokenId",
          "type": "uint256"
        }
      ],
      "name": "getAuditorsRequiredForAudit",
      "outputs": [
        {
          "internalType": "uint8",
          "name": "auditorReq",
          "type": "uint8"
        }
      ],
      "stateMutability": "view",
      "type": "function",
      "constant": true
    },
    {
      "inputs": [
        {
          "internalType": "uint256",
          "name": "auditId",
          "type": "uint256"
        },
        {
          "internalType": "address",
          "name": "auditor",
          "type": "address"
        }
      ],
      "name": "enrollAuditor",
      "outputs": [],
      "stateMutability": "payable",
      "type": "function",
      "payable": true
    },
    {
      "inputs": [
        {
          "internalType": "uint256",
          "name": "auditId",
          "type": "uint256"
        }
      ],
      "name": "assignAuditors",
      "outputs": [],
      "stateMutability": "payable",
      "type": "function",
      "payable": true
    },
    {
      "inputs": [
        {
          "internalType": "address",
          "name": "nftContract",
          "type": "address"
        },
        {
          "internalType": "uint256",
          "name": "auditItemId",
          "type": "uint256"
        },
        {
          "internalType": "uint256",
          "name": "tokenIdResult",
          "type": "uint256"
        },
        {
          "internalType": "enum DAudit.AuditResult",
          "name": "auditResult",
          "type": "uint8"
        }
      ],
      "name": "createAuditResult",
      "outputs": [],
      "stateMutability": "payable",
      "type": "function",
      "payable": true
    },
    {
      "inputs": [
        {
          "internalType": "uint256",
          "name": "auditId",
          "type": "uint256"
        }
      ],
      "name": "payAuditors",
      "outputs": [],
      "stateMutability": "payable",
      "type": "function",
      "payable": true
    },
    {
      "inputs": [],
      "name": "fetchMyAudits",
      "outputs": [
        {
          "components": [
            {
              "internalType": "uint256",
              "name": "itemId",
              "type": "uint256"
            },
            {
              "internalType": "address",
              "name": "nftContract",
              "type": "address"
            },
            {
              "internalType": "uint256",
              "name": "tokenId",
              "type": "uint256"
            },
            {
              "internalType": "address payable",
              "name": "producer",
              "type": "address"
            },
            {
              "internalType": "address payable",
              "name": "owner",
              "type": "address"
            },
            {
              "internalType": "uint256",
              "name": "auditFee",
              "type": "uint256"
            },
            {
              "internalType": "uint256",
              "name": "listingFee",
              "type": "uint256"
            },
            {
              "internalType": "uint8",
              "name": "auditorReq",
              "type": "uint8"
            },
            {
              "internalType": "enum DAudit.AuditItemStatus",
              "name": "auditItemStatus",
              "type": "uint8"
            }
          ],
          "internalType": "struct DAudit.AuditItemData[]",
          "name": "",
          "type": "tuple[]"
        }
      ],
      "stateMutability": "view",
      "type": "function",
      "constant": true
    }
  ],
  "bytecode": "0x608060405266071afd498d00006006553480156200001c57600080fd5b50604051620047173803806200471783398181016040528101906200004291906200012c565b600160008190555033600360006101000a81548173ffffffffffffffffffffffffffffffffffffffff021916908373ffffffffffffffffffffffffffffffffffffffff16021790555081600460006101000a81548173ffffffffffffffffffffffffffffffffffffffff021916908373ffffffffffffffffffffffffffffffffffffffff16021790555080600560006101000a81548173ffffffffffffffffffffffffffffffffffffffff021916908373ffffffffffffffffffffffffffffffffffffffff1602179055505050620001bb565b6000815190506200012681620001a1565b92915050565b600080604083850312156200014057600080fd5b6000620001508582860162000115565b9250506020620001638582860162000115565b9150509250929050565b60006200017a8262000181565b9050919050565b600073ffffffffffffffffffffffffffffffffffffffff82169050919050565b620001ac816200016d565b8114620001b857600080fd5b50565b61454c80620001cb6000396000f3fe6080604052600436106100dd5760003560e01c8063779853661161007f578063b8fe6abe11610059578063b8fe6abe14610285578063d632e2ab146102b0578063e806eb34146102cc578063f2144085146102e8576100dd565b806377985366146102015780639805a0691461023e578063b5de154414610269576100dd565b806339722b05116100bb57806339722b051461014357806348cb605c1461016e578063595b8dfc1461019957806363c46cdf146101c4576100dd565b80630693c165146100e2578063131dbd09146100fe578063396bbd8914610127575b600080fd5b6100fc60048036038101906100f79190613427565b610325565b005b34801561010a57600080fd5b5061012560048036038101906101209190613427565b610a02565b005b610141600480360381019061013c9190613319565b610a9c565b005b34801561014f57600080fd5b50610158610ebc565b6040516101659190613b0c565b60405180910390f35b34801561017a57600080fd5b506101836112ea565b6040516101909190613b0c565b60405180910390f35b3480156101a557600080fd5b506101ae6115f9565b6040516101bb9190613b0c565b60405180910390f35b3480156101d057600080fd5b506101eb60048036038101906101e69190613427565b611a27565b6040516101f89190613c85565b60405180910390f35b34801561020d57600080fd5b5061022860048036038101906102239190613427565b611a3e565b6040516102359190613c69565b60405180910390f35b34801561024a57600080fd5b50610253611c3a565b6040516102609190613b0c565b60405180910390f35b610283600480360381019061027e9190613450565b612015565b005b34801561029157600080fd5b5061029a61238a565b6040516102a79190613c85565b60405180910390f35b6102ca60048036038101906102c59190613427565b612394565b005b6102e660048036038101906102e191906132b6565b61297c565b005b3480156102f457600080fd5b5061030f600480360381019061030a9190613427565b612ca0565b60405161031c9190613d83565b60405180910390f35b6002600054141561036b576040517f08c379a000000000000000000000000000000000000000000000000000000000815260040161036290613c49565b60405180910390fd5b60026000819055503373ffffffffffffffffffffffffffffffffffffffff16600360009054906101000a900473ffffffffffffffffffffffffffffffffffffffff1673ffffffffffffffffffffffffffffffffffffffff1614610403576040517f08c379a00000000000000000000000000000000000000000000000000000000081526004016103fa90613ba9565b60405180910390fd5b60006007600083815260200190815260200160002060405180610120016040529081600082015481526020016001820160009054906101000a900473ffffffffffffffffffffffffffffffffffffffff1673ffffffffffffffffffffffffffffffffffffffff1673ffffffffffffffffffffffffffffffffffffffff168152602001600282015481526020016003820160009054906101000a900473ffffffffffffffffffffffffffffffffffffffff1673ffffffffffffffffffffffffffffffffffffffff1673ffffffffffffffffffffffffffffffffffffffff1681526020016004820160009054906101000a900473ffffffffffffffffffffffffffffffffffffffff1673ffffffffffffffffffffffffffffffffffffffff1673ffffffffffffffffffffffffffffffffffffffff16815260200160058201548152602001600682015481526020016007820160009054906101000a900460ff1660ff1660ff1681526020016007820160019054906101000a900460ff1660048111156105b6577f4e487b7100000000000000000000000000000000000000000000000000000000600052602160045260246000fd5b60048111156105ee577f4e487b7100000000000000000000000000000000000000000000000000000000600052602160045260246000fd5b8152505090506000600460009054906101000a900473ffffffffffffffffffffffffffffffffffffffff16905060008173ffffffffffffffffffffffffffffffffffffffff1663b9e309c1856040518263ffffffff1660e01b81526004016106569190613c85565b60006040518083038186803b15801561066e57600080fd5b505afa158015610682573d6000803e3d6000fd5b505050506040513d6000823e3d601f19601f820116820180604052508101906106ab91906133e6565b60000151905080518360e0015160ff1611156106fc576040517f08c379a00000000000000000000000000000000000000000000000000000000081526004016106f390613b69565b60405180910390fd5b60008360e0015160ff1667ffffffffffffffff811115610745577f4e487b7100000000000000000000000000000000000000000000000000000000600052604160045260246000fd5b6040519080825280602002602001820160405280156107735781602001602082028036833780820191505090505b5090506000805b60005b84518110156108e8576000610793600284612ccd565b14156108b3576107eb848683815181106107d6577f4e487b7100000000000000000000000000000000000000000000000000000000600052603260045260246000fd5b60200260200101518960e0015160ff16612d10565b6108b257848181518110610828577f4e487b7100000000000000000000000000000000000000000000000000000000600052603260045260246000fd5b6020026020010151848481518110610869577f4e487b7100000000000000000000000000000000000000000000000000000000600052603260045260246000fd5b602002602001019073ffffffffffffffffffffffffffffffffffffffff16908173ffffffffffffffffffffffffffffffffffffffff168152505082806108ae9061411a565b9350505b5b8660e0015160ff168314156108c7576108e8565b81806108d29061411a565b92505080806108e09061411a565b91505061077d565b508560e0015160ff16821061077a576000600560009054906101000a900473ffffffffffffffffffffffffffffffffffffffff1690508073ffffffffffffffffffffffffffffffffffffffff1663f2a0847d89866040518363ffffffff1660e01b8152600401610959929190613cc9565b600060405180830381600087803b15801561097357600080fd5b505af1158015610987573d6000803e3d6000fd5b505050506001600760008a815260200190815260200160002060070160016101000a81548160ff021916908360048111156109eb577f4e487b7100000000000000000000000000000000000000000000000000000000600052602160045260246000fd5b021790555050505050505050600160008190555050565b3373ffffffffffffffffffffffffffffffffffffffff16600360009054906101000a900473ffffffffffffffffffffffffffffffffffffffff1673ffffffffffffffffffffffffffffffffffffffff1614610a92576040517f08c379a0000000000000000000000000000000000000000000000000000000008152600401610a8990613ba9565b60405180910390fd5b8060068190555050565b60026000541415610ae2576040517f08c379a0000000000000000000000000000000000000000000000000000000008152600401610ad990613c49565b60405180910390fd5b600260008190555060008211610b2d576040517f08c379a0000000000000000000000000000000000000000000000000000000008152600401610b2490613b49565b60405180910390fd5b60065482610b3b9190613f47565b3414610b7c576040517f08c379a0000000000000000000000000000000000000000000000000000000008152600401610b7390613c29565b60405180910390fd5b610b866001612dbe565b6000610b926001612dd4565b90506040518061012001604052808281526020018673ffffffffffffffffffffffffffffffffffffffff1681526020018581526020013373ffffffffffffffffffffffffffffffffffffffff168152602001600073ffffffffffffffffffffffffffffffffffffffff16815260200184815260200160065481526020018360ff16815260200160006004811115610c52577f4e487b7100000000000000000000000000000000000000000000000000000000600052602160045260246000fd5b815250600760008381526020019081526020016000206000820151816000015560208201518160010160006101000a81548173ffffffffffffffffffffffffffffffffffffffff021916908373ffffffffffffffffffffffffffffffffffffffff1602179055506040820151816002015560608201518160030160006101000a81548173ffffffffffffffffffffffffffffffffffffffff021916908373ffffffffffffffffffffffffffffffffffffffff16021790555060808201518160040160006101000a81548173ffffffffffffffffffffffffffffffffffffffff021916908373ffffffffffffffffffffffffffffffffffffffff16021790555060a0820151816005015560c0820151816006015560e08201518160070160006101000a81548160ff021916908360ff1602179055506101008201518160070160016101000a81548160ff02191690836004811115610dd8577f4e487b7100000000000000000000000000000000000000000000000000000000600052602160045260246000fd5b02179055509050508473ffffffffffffffffffffffffffffffffffffffff166323b872dd3330876040518463ffffffff1660e01b8152600401610e1d93929190613a74565b600060405180830381600087803b158015610e3757600080fd5b505af1158015610e4b573d6000803e3d6000fd5b50505050838573ffffffffffffffffffffffffffffffffffffffff16827facc3d617db63b3d70743e53ed70a6b649016557ac5e93f470f9807e5438dd91733600088600654896000604051610ea596959493929190613aab565b60405180910390a450600160008190555050505050565b60606000610eca6001612dd4565b905060008060005b83811015610f73573373ffffffffffffffffffffffffffffffffffffffff1660076000600184610f029190613f47565b815260200190815260200160002060030160009054906101000a900473ffffffffffffffffffffffffffffffffffffffff1673ffffffffffffffffffffffffffffffffffffffff161415610f6057600183610f5d9190613f47565b92505b8080610f6b9061411a565b915050610ed2565b5060008267ffffffffffffffff811115610fb6577f4e487b7100000000000000000000000000000000000000000000000000000000600052604160045260246000fd5b604051908082528060200260200182016040528015610fef57816020015b610fdc612df8565b815260200190600190039081610fd45790505b50905060005b848110156112df573373ffffffffffffffffffffffffffffffffffffffff16600760006001846110259190613f47565b815260200190815260200160002060030160009054906101000a900473ffffffffffffffffffffffffffffffffffffffff1673ffffffffffffffffffffffffffffffffffffffff1614156112cc5760006001826110829190613f47565b905060006007600083815260200190815260200160002090508060405180610120016040529081600082015481526020016001820160009054906101000a900473ffffffffffffffffffffffffffffffffffffffff1673ffffffffffffffffffffffffffffffffffffffff1673ffffffffffffffffffffffffffffffffffffffff168152602001600282015481526020016003820160009054906101000a900473ffffffffffffffffffffffffffffffffffffffff1673ffffffffffffffffffffffffffffffffffffffff1673ffffffffffffffffffffffffffffffffffffffff1681526020016004820160009054906101000a900473ffffffffffffffffffffffffffffffffffffffff1673ffffffffffffffffffffffffffffffffffffffff1673ffffffffffffffffffffffffffffffffffffffff16815260200160058201548152602001600682015481526020016007820160009054906101000a900460ff1660ff1660ff1681526020016007820160019054906101000a900460ff16600481111561123a577f4e487b7100000000000000000000000000000000000000000000000000000000600052602160045260246000fd5b6004811115611272577f4e487b7100000000000000000000000000000000000000000000000000000000600052602160045260246000fd5b815250508486815181106112af577f4e487b7100000000000000000000000000000000000000000000000000000000600052603260045260246000fd5b60200260200101819052506001856112c79190613f47565b945050505b80806112d79061411a565b915050610ff5565b508094505050505090565b606060006112f86001612dd4565b90506000808267ffffffffffffffff81111561133d577f4e487b7100000000000000000000000000000000000000000000000000000000600052604160045260246000fd5b60405190808252806020026020018201604052801561137657816020015b611363612df8565b81526020019060019003908161135b5790505b50905060005b838110156115ef5760006001826113939190613f47565b905060006007600083815260200190815260200160002090508060405180610120016040529081600082015481526020016001820160009054906101000a900473ffffffffffffffffffffffffffffffffffffffff1673ffffffffffffffffffffffffffffffffffffffff1673ffffffffffffffffffffffffffffffffffffffff168152602001600282015481526020016003820160009054906101000a900473ffffffffffffffffffffffffffffffffffffffff1673ffffffffffffffffffffffffffffffffffffffff1673ffffffffffffffffffffffffffffffffffffffff1681526020016004820160009054906101000a900473ffffffffffffffffffffffffffffffffffffffff1673ffffffffffffffffffffffffffffffffffffffff1673ffffffffffffffffffffffffffffffffffffffff16815260200160058201548152602001600682015481526020016007820160009054906101000a900460ff1660ff1660ff1681526020016007820160019054906101000a900460ff16600481111561154b577f4e487b7100000000000000000000000000000000000000000000000000000000600052602160045260246000fd5b6004811115611583577f4e487b7100000000000000000000000000000000000000000000000000000000600052602160045260246000fd5b815250508486815181106115c0577f4e487b7100000000000000000000000000000000000000000000000000000000600052603260045260246000fd5b60200260200101819052506001856115d89190613f47565b9450505080806115e79061411a565b91505061137c565b5080935050505090565b606060006116076001612dd4565b905060008060005b838110156116b0573373ffffffffffffffffffffffffffffffffffffffff166007600060018461163f9190613f47565b815260200190815260200160002060030160009054906101000a900473ffffffffffffffffffffffffffffffffffffffff1673ffffffffffffffffffffffffffffffffffffffff16141561169d5760018361169a9190613f47565b92505b80806116a89061411a565b91505061160f565b5060008267ffffffffffffffff8111156116f3577f4e487b7100000000000000000000000000000000000000000000000000000000600052604160045260246000fd5b60405190808252806020026020018201604052801561172c57816020015b611719612df8565b8152602001906001900390816117115790505b50905060005b84811015611a1c573373ffffffffffffffffffffffffffffffffffffffff16600760006001846117629190613f47565b815260200190815260200160002060030160009054906101000a900473ffffffffffffffffffffffffffffffffffffffff1673ffffffffffffffffffffffffffffffffffffffff161415611a095760006001826117bf9190613f47565b905060006007600083815260200190815260200160002090508060405180610120016040529081600082015481526020016001820160009054906101000a900473ffffffffffffffffffffffffffffffffffffffff1673ffffffffffffffffffffffffffffffffffffffff1673ffffffffffffffffffffffffffffffffffffffff168152602001600282015481526020016003820160009054906101000a900473ffffffffffffffffffffffffffffffffffffffff1673ffffffffffffffffffffffffffffffffffffffff1673ffffffffffffffffffffffffffffffffffffffff1681526020016004820160009054906101000a900473ffffffffffffffffffffffffffffffffffffffff1673ffffffffffffffffffffffffffffffffffffffff1673ffffffffffffffffffffffffffffffffffffffff16815260200160058201548152602001600682015481526020016007820160009054906101000a900460ff1660ff1660ff1681526020016007820160019054906101000a900460ff166004811115611977577f4e487b7100000000000000000000000000000000000000000000000000000000600052602160045260246000fd5b60048111156119af577f4e487b7100000000000000000000000000000000000000000000000000000000600052602160045260246000fd5b815250508486815181106119ec577f4e487b7100000000000000000000000000000000000000000000000000000000600052603260045260246000fd5b6020026020010181905250600185611a049190613f47565b945050505b8080611a149061411a565b915050611732565b508094505050505090565b600081600654611a379190613f47565b9050919050565b611a46612df8565b6007600083815260200190815260200160002060405180610120016040529081600082015481526020016001820160009054906101000a900473ffffffffffffffffffffffffffffffffffffffff1673ffffffffffffffffffffffffffffffffffffffff1673ffffffffffffffffffffffffffffffffffffffff168152602001600282015481526020016003820160009054906101000a900473ffffffffffffffffffffffffffffffffffffffff1673ffffffffffffffffffffffffffffffffffffffff1673ffffffffffffffffffffffffffffffffffffffff1681526020016004820160009054906101000a900473ffffffffffffffffffffffffffffffffffffffff1673ffffffffffffffffffffffffffffffffffffffff1673ffffffffffffffffffffffffffffffffffffffff16815260200160058201548152602001600682015481526020016007820160009054906101000a900460ff1660ff1660ff1681526020016007820160019054906101000a900460ff166004811115611bf7577f4e487b7100000000000000000000000000000000000000000000000000000000600052602160045260246000fd5b6004811115611c2f577f4e487b7100000000000000000000000000000000000000000000000000000000600052602160045260246000fd5b815250509050919050565b60606000611c486001612dd4565b90506000611c566002612dd4565b611c606001612dd4565b611c6a9190613fce565b90506000808267ffffffffffffffff811115611caf577f4e487b7100000000000000000000000000000000000000000000000000000000600052604160045260246000fd5b604051908082528060200260200182016040528015611ce857816020015b611cd5612df8565b815260200190600190039081611ccd5790505b50905060005b8481101561200a5760006004811115611d30577f4e487b7100000000000000000000000000000000000000000000000000000000600052602160045260246000fd5b60076000600184611d419190613f47565b815260200190815260200160002060070160019054906101000a900460ff166004811115611d98577f4e487b7100000000000000000000000000000000000000000000000000000000600052602160045260246000fd5b1415611ff7576000600182611dad9190613f47565b905060006007600083815260200190815260200160002090508060405180610120016040529081600082015481526020016001820160009054906101000a900473ffffffffffffffffffffffffffffffffffffffff1673ffffffffffffffffffffffffffffffffffffffff1673ffffffffffffffffffffffffffffffffffffffff168152602001600282015481526020016003820160009054906101000a900473ffffffffffffffffffffffffffffffffffffffff1673ffffffffffffffffffffffffffffffffffffffff1673ffffffffffffffffffffffffffffffffffffffff1681526020016004820160009054906101000a900473ffffffffffffffffffffffffffffffffffffffff1673ffffffffffffffffffffffffffffffffffffffff1673ffffffffffffffffffffffffffffffffffffffff16815260200160058201548152602001600682015481526020016007820160009054906101000a900460ff1660ff1660ff1681526020016007820160019054906101000a900460ff166004811115611f65577f4e487b7100000000000000000000000000000000000000000000000000000000600052602160045260246000fd5b6004811115611f9d577f4e487b7100000000000000000000000000000000000000000000000000000000600052602160045260246000fd5b81525050848681518110611fda577f4e487b7100000000000000000000000000000000000000000000000000000000600052603260045260246000fd5b6020026020010181905250600185611ff29190613f47565b945050505b80806120029061411a565b915050611cee565b508094505050505090565b6002600054141561205b576040517f08c379a000000000000000000000000000000000000000000000000000000000815260040161205290613c49565b60405180910390fd5b600260008190555060006007600084815260200190815260200160002060405180610120016040529081600082015481526020016001820160009054906101000a900473ffffffffffffffffffffffffffffffffffffffff1673ffffffffffffffffffffffffffffffffffffffff1673ffffffffffffffffffffffffffffffffffffffff168152602001600282015481526020016003820160009054906101000a900473ffffffffffffffffffffffffffffffffffffffff1673ffffffffffffffffffffffffffffffffffffffff1673ffffffffffffffffffffffffffffffffffffffff1681526020016004820160009054906101000a900473ffffffffffffffffffffffffffffffffffffffff1673ffffffffffffffffffffffffffffffffffffffff1673ffffffffffffffffffffffffffffffffffffffff16815260200160058201548152602001600682015481526020016007820160009054906101000a900460ff1660ff1660ff1681526020016007820160019054906101000a900460ff166004811115612216577f4e487b7100000000000000000000000000000000000000000000000000000000600052602160045260246000fd5b600481111561224e577f4e487b7100000000000000000000000000000000000000000000000000000000600052602160045260246000fd5b8152505090506000600460009054906101000a900473ffffffffffffffffffffffffffffffffffffffff169050816060015173ffffffffffffffffffffffffffffffffffffffff168373ffffffffffffffffffffffffffffffffffffffff1614156122ee576040517f08c379a00000000000000000000000000000000000000000000000000000000081526004016122e590613be9565b60405180910390fd5b8073ffffffffffffffffffffffffffffffffffffffff1663afa6255e85856040518363ffffffff1660e01b8152600401612329929190613ca0565b602060405180830381600087803b15801561234357600080fd5b505af1158015612357573d6000803e3d6000fd5b505050506040513d601f19601f8201168201806040525081019061237b919061337c565b50505060016000819055505050565b6000600654905090565b600260005414156123da576040517f08c379a00000000000000000000000000000000000000000000000000000000081526004016123d190613c49565b60405180910390fd5b60026000819055503373ffffffffffffffffffffffffffffffffffffffff16600360009054906101000a900473ffffffffffffffffffffffffffffffffffffffff1673ffffffffffffffffffffffffffffffffffffffff1614612472576040517f08c379a000000000000000000000000000000000000000000000000000000000815260040161246990613ba9565b60405180910390fd5b6000600760008381526020019081526020016000206005015490506000600560009054906101000a900473ffffffffffffffffffffffffffffffffffffffff16905060008173ffffffffffffffffffffffffffffffffffffffff1663f8edc10f856040518263ffffffff1660e01b81526004016124ef9190613c85565b60006040518083038186803b15801561250757600080fd5b505afa15801561251b573d6000803e3d6000fd5b505050506040513d6000823e3d601f19601f8201168201806040525081019061254491906133a5565b905060008160c00151905060008260400151905060008360800151905060008460a0015190506000846000815181106125a6577f4e487b7100000000000000000000000000000000000000000000000000000000600052603260045260246000fd5b6020026020010151905060006001905060005b8651811015612629578215158782815181106125fe577f4e487b7100000000000000000000000000000000000000000000000000000000600052603260045260246000fd5b60200260200101511515146126165760009150612629565b80806126219061411a565b9150506125b9565b508061266a576040517f08c379a000000000000000000000000000000000000000000000000000000000815260040161266190613bc9565b60405180910390fd5b81156126da576002600760008c815260200190815260200160002060070160016101000a81548160ff021916908360048111156126d0577f4e487b7100000000000000000000000000000000000000000000000000000000600052602160045260246000fd5b0217905550612740565b6003600760008c815260200190815260200160002060070160016101000a81548160ff0219169083600481111561273a577f4e487b7100000000000000000000000000000000000000000000000000000000600052602160045260246000fd5b02179055505b600061275686518b612de290919063ffffffff16565b905060005b86518110156128f757600087828151811061279f577f4e487b7100000000000000000000000000000000000000000000000000000000600052603260045260246000fd5b602002602001015173ffffffffffffffffffffffffffffffffffffffff16836040516127ca90613a22565b60006040518083038185875af1925050503d8060008114612807576040519150601f19603f3d011682016040523d82523d6000602084013e61280c565b606091505b5050905080612850576040517f08c379a000000000000000000000000000000000000000000000000000000000815260040161284790613c09565b60405180910390fd5b8287838151811061288a577f4e487b7100000000000000000000000000000000000000000000000000000000600052603260045260246000fd5b60200260200101818152505060018683815181106128d1577f4e487b7100000000000000000000000000000000000000000000000000000000600052603260045260246000fd5b6020026020010190151590811515815250505080806128ef9061411a565b91505061275b565b508873ffffffffffffffffffffffffffffffffffffffff1663f25d7f788c87876040518463ffffffff1660e01b815260040161293593929190613cf9565b600060405180830381600087803b15801561294f57600080fd5b505af1158015612963573d6000803e3d6000fd5b5050505050505050505050505050600160008190555050565b826000600560009054906101000a900473ffffffffffffffffffffffffffffffffffffffff1690508073ffffffffffffffffffffffffffffffffffffffff1663fef4eddd83336040518363ffffffff1660e01b81526004016129df929190613ca0565b60206040518083038186803b1580156129f757600080fd5b505afa158015612a0b573d6000803e3d6000fd5b505050506040513d601f19601f82011682018060405250810190612a2f919061337c565b612a6e576040517f08c379a0000000000000000000000000000000000000000000000000000000008152600401612a6590613b89565b60405180910390fd5b60026000541415612ab4576040517f08c379a0000000000000000000000000000000000000000000000000000000008152600401612aab90613c49565b60405180910390fd5b60026000819055506000600560009054906101000a900473ffffffffffffffffffffffffffffffffffffffff1690508073ffffffffffffffffffffffffffffffffffffffff1663465d063c878733600180811115612b3b577f4e487b7100000000000000000000000000000000000000000000000000000000600052602160045260246000fd5b896001811115612b74577f4e487b7100000000000000000000000000000000000000000000000000000000600052602160045260246000fd5b146040518563ffffffff1660e01b8152600401612b949493929190613d3e565b602060405180830381600087803b158015612bae57600080fd5b505af1158015612bc2573d6000803e3d6000fd5b505050506040513d601f19601f82011682018060405250810190612be6919061337c565b508673ffffffffffffffffffffffffffffffffffffffff166323b872dd3330886040518463ffffffff1660e01b8152600401612c2493929190613a74565b600060405180830381600087803b158015612c3e57600080fd5b505af1158015612c52573d6000803e3d6000fd5b5050505084867f8f6d18ae6ebc04acb4f3e4ba57d50c56f3b7ff18ce16bf99373fbf074983e3fa86604051612c879190613b2e565b60405180910390a3506001600081905550505050505050565b60006007600083815260200190815260200160002060070160009054906101000a900460ff169050919050565b600082423384604051602001612ce593929190613a37565b6040516020818303038152906040528051906020012060001c612d089190614191565b905092915050565b600080600090505b82811015612db1578373ffffffffffffffffffffffffffffffffffffffff16858281518110612d70577f4e487b7100000000000000000000000000000000000000000000000000000000600052603260045260246000fd5b602002602001015173ffffffffffffffffffffffffffffffffffffffff161415612d9e576001915050612db7565b8080612da99061411a565b915050612d18565b50600090505b9392505050565b6001816000016000828254019250508190555050565b600081600001549050919050565b60008183612df09190613f9d565b905092915050565b60405180610120016040528060008152602001600073ffffffffffffffffffffffffffffffffffffffff16815260200160008152602001600073ffffffffffffffffffffffffffffffffffffffff168152602001600073ffffffffffffffffffffffffffffffffffffffff1681526020016000815260200160008152602001600060ff16815260200160006004811115612ebb577f4e487b7100000000000000000000000000000000000000000000000000000000600052602160045260246000fd5b81525090565b6000612ed4612ecf84613dc3565b613d9e565b90508083825260208201905082856020860282011115612ef357600080fd5b60005b85811015612f235781612f09888261301a565b845260208401935060208301925050600181019050612ef6565b5050509392505050565b6000612f40612f3b84613def565b613d9e565b90508083825260208201905082856020860282011115612f5f57600080fd5b60005b85811015612f8f5781612f7588826130ad565b845260208401935060208301925050600181019050612f62565b5050509392505050565b6000612fac612fa784613e1b565b613d9e565b90508083825260208201905082856020860282011115612fcb57600080fd5b60005b85811015612ffb5781612fe1888261328c565b845260208401935060208301925050600181019050612fce565b5050509392505050565b600081359050613014816144aa565b92915050565b600081519050613029816144aa565b92915050565b600082601f83011261304057600080fd5b8151613050848260208601612ec1565b91505092915050565b600082601f83011261306a57600080fd5b815161307a848260208601612f2d565b91505092915050565b600082601f83011261309457600080fd5b81516130a4848260208601612f99565b91505092915050565b6000815190506130bc816144c1565b92915050565b6000813590506130d1816144d8565b92915050565b600060e082840312156130e957600080fd5b6130f360e0613d9e565b905060006131038482850161328c565b60008301525060206131178482850161328c565b602083015250604082015167ffffffffffffffff81111561313757600080fd5b6131438482850161302f565b604083015250606082015167ffffffffffffffff81111561316357600080fd5b61316f84828501613083565b606083015250608082015167ffffffffffffffff81111561318f57600080fd5b61319b84828501613083565b60808301525060a082015167ffffffffffffffff8111156131bb57600080fd5b6131c784828501613059565b60a08301525060c082015167ffffffffffffffff8111156131e757600080fd5b6131f384828501613059565b60c08301525092915050565b60006060828403121561321157600080fd5b61321b6060613d9e565b9050600082015167ffffffffffffffff81111561323757600080fd5b6132438482850161302f565b60008301525060206132578482850161328c565b602083015250604061326b8482850161328c565b60408301525092915050565b600081359050613286816144e8565b92915050565b60008151905061329b816144e8565b92915050565b6000813590506132b0816144ff565b92915050565b600080600080608085870312156132cc57600080fd5b60006132da87828801613005565b94505060206132eb87828801613277565b93505060406132fc87828801613277565b925050606061330d878288016130c2565b91505092959194509250565b6000806000806080858703121561332f57600080fd5b600061333d87828801613005565b945050602061334e87828801613277565b935050604061335f87828801613277565b9250506060613370878288016132a1565b91505092959194509250565b60006020828403121561338e57600080fd5b600061339c848285016130ad565b91505092915050565b6000602082840312156133b757600080fd5b600082015167ffffffffffffffff8111156133d157600080fd5b6133dd848285016130d7565b91505092915050565b6000602082840312156133f857600080fd5b600082015167ffffffffffffffff81111561341257600080fd5b61341e848285016131ff565b91505092915050565b60006020828403121561343957600080fd5b600061344784828501613277565b91505092915050565b6000806040838503121561346357600080fd5b600061347185828601613277565b925050602061348285828601613005565b9150509250929050565b6000613498838361350b565b60208301905092915050565b60006134b083836136b8565b60208301905092915050565b60006134c88383613861565b6101208301905092915050565b60006134e183836139cf565b60208301905092915050565b6134f68161408f565b82525050565b61350581614014565b82525050565b61351481614002565b82525050565b61352381614002565b82525050565b61353a61353582614002565b614163565b82525050565b600061354b82613e87565b6135558185613ee7565b935061356083613e47565b8060005b83811015613591578151613578888261348c565b975061358383613eb3565b925050600181019050613564565b5085935050505092915050565b60006135a982613e92565b6135b38185613ef8565b93506135be83613e57565b8060005b838110156135ef5781516135d688826134a4565b97506135e183613ec0565b9250506001810190506135c2565b5085935050505092915050565b600061360782613e9d565b6136118185613f09565b935061361c83613e67565b8060005b8381101561364d57815161363488826134bc565b975061363f83613ecd565b925050600181019050613620565b5085935050505092915050565b600061366582613ea8565b61366f8185613f1a565b935061367a83613e77565b8060005b838110156136ab57815161369288826134d5565b975061369d83613eda565b92505060018101905061367e565b5085935050505092915050565b6136c181614026565b82525050565b6136d081614026565b82525050565b6136df816140a1565b82525050565b6136ee816140a1565b82525050565b6136fd816140b3565b82525050565b6000613710601f83613f36565b915061371b8261429c565b602082019050919050565b6000613733601c83613f36565b915061373e826142c5565b602082019050919050565b6000613756602783613f36565b9150613761826142ee565b604082019050919050565b6000613779602083613f36565b91506137848261433d565b602082019050919050565b600061379c603e83613f36565b91506137a782614366565b604082019050919050565b60006137bf601e83613f36565b91506137ca826143b5565b602082019050919050565b60006137e2600083613f2b565b91506137ed826143de565b600082019050919050565b6000613805601083613f36565b9150613810826143e1565b602082019050919050565b6000613828602483613f36565b91506138338261440a565b604082019050919050565b600061384b601f83613f36565b915061385682614459565b602082019050919050565b6101208201600082015161387860008501826139cf565b50602082015161388b602085018261350b565b50604082015161389e60408501826139cf565b5060608201516138b160608501826134fc565b5060808201516138c460808501826134fc565b5060a08201516138d760a08501826139cf565b5060c08201516138ea60c08501826139cf565b5060e08201516138fd60e0850182613a04565b506101008201516139126101008501826136d6565b50505050565b6101208201600082015161392f60008501826139cf565b506020820151613942602085018261350b565b50604082015161395560408501826139cf565b50606082015161396860608501826134fc565b50608082015161397b60808501826134fc565b5060a082015161398e60a08501826139cf565b5060c08201516139a160c08501826139cf565b5060e08201516139b460e0850182613a04565b506101008201516139c96101008501826136d6565b50505050565b6139d881614078565b82525050565b6139e781614078565b82525050565b6139fe6139f982614078565b614187565b82525050565b613a0d81614082565b82525050565b613a1c81614082565b82525050565b6000613a2d826137d5565b9150819050919050565b6000613a4382866139ed565b602082019150613a538285613529565b601482019150613a6382846139ed565b602082019150819050949350505050565b6000606082019050613a89600083018661351a565b613a96602083018561351a565b613aa360408301846139de565b949350505050565b600060c082019050613ac0600083018961351a565b613acd602083018861351a565b613ada60408301876139de565b613ae760608301866139de565b613af46080830185613a13565b613b0160a08301846136e5565b979650505050505050565b60006020820190508181036000830152613b2681846135fc565b905092915050565b6000602082019050613b4360008301846136f4565b92915050565b60006020820190508181036000830152613b6281613703565b9050919050565b60006020820190508181036000830152613b8281613726565b9050919050565b60006020820190508181036000830152613ba281613749565b9050919050565b60006020820190508181036000830152613bc28161376c565b9050919050565b60006020820190508181036000830152613be28161378f565b9050919050565b60006020820190508181036000830152613c02816137b2565b9050919050565b60006020820190508181036000830152613c22816137f8565b9050919050565b60006020820190508181036000830152613c428161381b565b9050919050565b60006020820190508181036000830152613c628161383e565b9050919050565b600061012082019050613c7f6000830184613918565b92915050565b6000602082019050613c9a60008301846139de565b92915050565b6000604082019050613cb560008301856139de565b613cc2602083018461351a565b9392505050565b6000604082019050613cde60008301856139de565b8181036020830152613cf08184613540565b90509392505050565b6000606082019050613d0e60008301866139de565b8181036020830152613d20818561365a565b90508181036040830152613d34818461359e565b9050949350505050565b6000608082019050613d5360008301876139de565b613d6060208301866139de565b613d6d60408301856134ed565b613d7a60608301846136c7565b95945050505050565b6000602082019050613d986000830184613a13565b92915050565b6000613da8613db9565b9050613db482826140e9565b919050565b6000604051905090565b600067ffffffffffffffff821115613dde57613ddd61424f565b5b602082029050602081019050919050565b600067ffffffffffffffff821115613e0a57613e0961424f565b5b602082029050602081019050919050565b600067ffffffffffffffff821115613e3657613e3561424f565b5b602082029050602081019050919050565b6000819050602082019050919050565b6000819050602082019050919050565b6000819050602082019050919050565b6000819050602082019050919050565b600081519050919050565b600081519050919050565b600081519050919050565b600081519050919050565b6000602082019050919050565b6000602082019050919050565b6000602082019050919050565b6000602082019050919050565b600082825260208201905092915050565b600082825260208201905092915050565b600082825260208201905092915050565b600082825260208201905092915050565b600081905092915050565b600082825260208201905092915050565b6000613f5282614078565b9150613f5d83614078565b9250827fffffffffffffffffffffffffffffffffffffffffffffffffffffffffffffffff03821115613f9257613f916141c2565b5b828201905092915050565b6000613fa882614078565b9150613fb383614078565b925082613fc357613fc26141f1565b5b828204905092915050565b6000613fd982614078565b9150613fe483614078565b925082821015613ff757613ff66141c2565b5b828203905092915050565b600061400d82614058565b9050919050565b600061401f82614058565b9050919050565b60008115159050919050565b600081905061404082614482565b919050565b600081905061405382614496565b919050565b600073ffffffffffffffffffffffffffffffffffffffff82169050919050565b6000819050919050565b600060ff82169050919050565b600061409a826140c5565b9050919050565b60006140ac82614032565b9050919050565b60006140be82614045565b9050919050565b60006140d0826140d7565b9050919050565b60006140e282614058565b9050919050565b6140f28261427e565b810181811067ffffffffffffffff821117156141115761411061424f565b5b80604052505050565b600061412582614078565b91507fffffffffffffffffffffffffffffffffffffffffffffffffffffffffffffffff821415614158576141576141c2565b5b600182019050919050565b600061416e82614175565b9050919050565b60006141808261428f565b9050919050565b6000819050919050565b600061419c82614078565b91506141a783614078565b9250826141b7576141b66141f1565b5b828206905092915050565b7f4e487b7100000000000000000000000000000000000000000000000000000000600052601160045260246000fd5b7f4e487b7100000000000000000000000000000000000000000000000000000000600052601260045260246000fd5b7f4e487b7100000000000000000000000000000000000000000000000000000000600052602160045260246000fd5b7f4e487b7100000000000000000000000000000000000000000000000000000000600052604160045260246000fd5b6000601f19601f8301169050919050565b60008160601b9050919050565b7f6175646974466565206d757374206265206174206c6561737420312077656900600082015250565b7f4e6f7420656e6f7567682061756469746f727320656e726f6c6c656400000000600082015250565b7f5468652061756469746f7220696e206e6f742061737369676e656420746f207460008201527f6865206974656d00000000000000000000000000000000000000000000000000602082015250565b7f4f776e61626c653a2063616c6c6572206973206e6f7420746865206f776e6572600082015250565b7f416c6c2074686520417564697420726573756c7473206d75737420626520746860008201527f652073616d6520666f7220706179696e67207468652061756469746f72730000602082015250565b7f41756469746f722063616e6e6f74206265207468652070726f64756365720000600082015250565b50565b7f5472616e73666572206661696c65642e00000000000000000000000000000000600082015250565b7f61756469744665652b4c697374696e67466565206d7573742062652070726f7660008201527f6964656400000000000000000000000000000000000000000000000000000000602082015250565b7f5265656e7472616e637947756172643a207265656e7472616e742063616c6c00600082015250565b6005811061449357614492614220565b5b50565b600281106144a7576144a6614220565b5b50565b6144b381614002565b81146144be57600080fd5b50565b6144ca81614026565b81146144d557600080fd5b50565b600281106144e557600080fd5b50565b6144f181614078565b81146144fc57600080fd5b50565b61450881614082565b811461451357600080fd5b5056fea2646970667358221220dd786bd7013eebbd2483ee3a72cfd913325506121c7cf592be36f88f84d218aa64736f6c63430008030033",
  "immutableReferences": {},
  "source": "// SPDX-License-Identifier: MIT OR Apache-2.0\npragma solidity 0.8.3;\n\nimport \"@openzeppelin/contracts/utils/Counters.sol\";\nimport \"@openzeppelin/contracts/security/ReentrancyGuard.sol\";\nimport \"@openzeppelin/contracts/token/ERC721/ERC721.sol\";\nimport \"@openzeppelin/contracts/utils/math/SafeMath.sol\";\n\n//import \"hardhat/console.sol\";\nimport \"./IAuditorAssignments.sol\";\nimport \"./IAuditorEnrollments.sol\";\n\n/// @title Decentralized Audit Main Smart Contract with business logic\n/// @author Enrique R. D'Angelo\n/// @notice DAudit is the smart contract containing the business logic for handling the audit processes.\n/// @dev Extends ReentrancyGuard for preventing a contract from calling itself, directly or indirectly. \n/// Uses nonReentrant modifier on any functions that calls another smart contract.\n/// Uses Safemath to prevent overflow checking\ncontract DAudit is ReentrancyGuard {\n    using Counters for Counters.Counter;\n    using SafeMath for uint256;\n\n    // Number of AuditItems submitted\n    Counters.Counter private _itemIds;\n    // Number of AuditItems pending\n    Counters.Counter private _itemsPending;\n\n    // Address of the Audit System owner to collect admin fees\n    address payable owner;\n\n    // Address of the auditor enrollments smart contract\n    address payable auditEnrollmentsAddr;\n\n    // Address of the auditor assignment  smart contract\n    address payable auditAssignmentsAddr;\n\n    // Fee payed by the producers, expressed in ETH because we use the chain token \n    uint256 listingFee = 0.0020 ether;\n\n    /// @notice DAudit constructor called at deploy time, need to be called with the enrollments and assignments \n    /// smart contracts addresses\n    /// @dev Make use of Enrollments and Assignments smart contracts which are initialized in the constructor (at deployment time) \n    /// which may be improved by implementing a registry of smart contracts in future versions. \n    /// @param _auditEnrollmentsAddr address of the AuditEnrollments smart contract\n    /// @param _auditAssignmentsAddr address of the AuditAssignments smart contract\n    constructor(address _auditEnrollmentsAddr, address _auditAssignmentsAddr) {\n        // Establishes the owner as the one that deploys the DAudit contract\n        owner = payable(msg.sender);\n        auditEnrollmentsAddr = payable(_auditEnrollmentsAddr);\n        auditAssignmentsAddr = payable(_auditAssignmentsAddr);\n    }\n\n    /// Audit Information\n    struct AuditItemData {\n        uint256 itemId;                     // Autonumber primary key of data structure       \n        address nftContract;                // Nft Contract Address of the Audit Item\n        uint256 tokenId;                    // Nft TokenId of the Audit Item\n        address payable producer;           // Address of the person producing the audit and requiring to be auditted\n        address payable owner;              // Owner of the Audit Item (can be the DAudit owner or the producer once audit is finished)\n        uint256 auditFee;                   // Fee payed by the producer to the auditors\n        uint256 listingFee;                 // Fee charged by the smart contract which covers expenses and commissions\n        uint8 auditorReq;                   // Number of auditors required to complete the audit\n        AuditItemStatus auditItemStatus;    // Status of the Audit Items in terms of progress of the audit activities (see below)\n    }\n\n    // <enum Status: AuditPending, InProgress, AuditOk, AuditFailed>\n    // 0 = Pending    - Audit was just created and is pending to be assigned\n    // 1 = InProgress - Auditors were assigned to the audit and are working on it.\n    // 2 = Passed     - Auditors results were submitted and DAudit determined that the audit passed\n    // 3 = Failed     - Auditors results were submitted and DAudit determined that the audit failed\n    // 4 = Cancelled  - The audit was cancelled by the system - not enough auditors\n    enum AuditItemStatus {\n        Pending,\n        InProgress,\n        Passed,\n        Failed,\n        Cancelled\n    }\n\n    // Storage for the AuditItems and their Data, maps the tokenId of the AuditItem (NFT) to the AuditItemData \n    mapping(uint256 => AuditItemData) private idToAuditItemData;\n\n    // Event to emit Audit Items being created, can listen them from tests and front end apps\n    event AuditItemCreated(\n        uint256 indexed itemId,\n        address indexed nftContract,\n        uint256 indexed tokenId,\n        address producer,\n        address owner,\n        uint256 auditFee,\n        uint256 listingFee,\n        uint8 auditorReq,\n        AuditItemStatus auditItemStatus\n    );\n\n    /// @notice Query the listing fee currently set up for the contract\n    /// @return listing fee storage variable with the configuration of the listing fee \n    function getListingFee() public view returns (uint256) {\n        return listingFee;\n    }\n\n    /// @notice Query the listing fee currently set up for the contract\n    /// @param _listingFee fee charged for listing an audit item\n    /// @dev updates the listing fee storage variable with the configuration of the listing fee \n    function setListingFee(uint256 _listingFee ) public onlyOwner {\n        listingFee = _listingFee;\n    }\n\n    /// @notice Returns the fee charged to the producers including listing fee + fees paid to auditors\n    /// @param _auditFee fee charged for listing an audit item\n    function calculateProducerFee(uint256 _auditFee ) public view returns (uint256) {\n        return listingFee + _auditFee ;\n    }\n\n\n    /// @notice Creates an auditItem and sets it available on the descentralized audit system\n    /// @param nftContract Nft Contract Address of the Audit Item\n    /// @param tokenId Nft TokenId of the Audit Item\n    /// @param auditFee Fee payed by the producer to the auditors\n    /// @param auditorsReq Number of auditors required to complete the audit\n    function createAuditItem(\n        address nftContract,\n        uint256 tokenId,\n        uint256 auditFee,\n        uint8 auditorsReq\n    ) public payable nonReentrant {\n        require(auditFee > 0, \"auditFee must be at least 1 wei\");\n        require(\n            msg.value == auditFee + listingFee,\n            \"auditFee+ListingFee must be provided\"\n        );\n\n        // We are creating a new Item, so we increment the itemIds counter and assign it to a new id in the list\n        _itemIds.increment();\n        uint256 itemId = _itemIds.current();\n\n        // Populate the AuditItem data\n\n        idToAuditItemData[itemId] = AuditItemData(\n            itemId, // autoincremented in this function\n            nftContract, // parameter from the FrontEnd or function caller\n            tokenId, // parameter from the FrontEnd or function caller\n            payable(msg.sender), // the sender of the transaction is the \"producer\" of the auditItem\n            payable(address(0)), // owner of the audit item is no-one\n            auditFee, // parameters auditFee provided by the producer that will be distributed to the auditors\n            listingFee, // current listing fee that will remain as a residual in the contract\n            auditorsReq,\n            AuditItemStatus.Pending\n        ); // auditItemStatus set to Pending\n\n        // Transfer the ownership of the AuditItem (NFT Token) to the DAudit smart contract\n        // The DAudit smart contract will hold it until the audit is archived\n        IERC721(nftContract).transferFrom(msg.sender, address(this), tokenId);\n\n        // The createAuditItem function receives the auditFee + listingFee automatically\n        // and credits in the DAudit smartContract balance\n\n        emit AuditItemCreated(\n            itemId,\n            nftContract,\n            tokenId,\n            msg.sender,\n            address(0), // owner of the audit item is no-one \n            auditFee,\n            listingFee,\n            auditorsReq,\n            AuditItemStatus.Pending\n        ); // auditItemStatus set to Pending\n    }\n\n    /// @notice Returns audits with status = Pending\n    /// @return Array of AuditItemData\n    function fetchPendingAudits() public view returns (AuditItemData[] memory) {\n        uint256 itemCount = _itemIds.current();\n        uint256 pendingItemsCount = _itemIds.current() -\n            _itemsPending.current();\n        uint256 currentIndex = 0;\n        // Creates a fixedLegth arrat with  the size of pending items count\n        AuditItemData[] memory items = new AuditItemData[](pendingItemsCount);\n        // Iterates the array and only add itemas with AuditItemStatus.Pending\n        for (uint256 i = 0; i < itemCount; i++) {\n            if (\n                idToAuditItemData[i + 1].auditItemStatus ==\n                AuditItemStatus.Pending\n            ) {\n                uint256 currentId = i + 1;\n                AuditItemData storage currentItem = idToAuditItemData[\n                    currentId\n                ];\n                items[currentIndex] = currentItem;\n                currentIndex += 1;\n            }\n        }\n        return items;\n    }\n    /// @notice Returns all audits submitted to DAudit system\n    /// @return Array of AuditItemData\n    function fetchAudits() public view returns (AuditItemData[] memory) {\n        uint256 itemCount = _itemIds.current();\n        uint256 currentIndex = 0;\n        // Creates a fixedLegth arrat with  the size of pending items count\n        AuditItemData[] memory items = new AuditItemData[](itemCount);\n        // Iterates the array and only add itemas with AuditItemStatus.Pending\n        for (uint256 i = 0; i < itemCount; i++) {\n                uint256 currentId = i + 1;\n                AuditItemData storage currentItem = idToAuditItemData[\n                    currentId\n                ];\n                items[currentIndex] = currentItem;\n                currentIndex += 1;\n            }\n        return items;\n    }\n\n    /// @notice Returns all audits submitted to DAudit system for a given producer (msg.sender)\n    /// @dev the producer parameter is obtained from the message sender\n    /// @return Array of AuditItemData\n    function fetchItemsProducer() public view returns (AuditItemData[] memory) {\n        uint256 totalItemCount = _itemIds.current();\n        uint256 itemCount = 0;\n        uint256 currentIndex = 0;\n\n        for (uint256 i = 0; i < totalItemCount; i++) {\n            if (idToAuditItemData[i + 1].producer == msg.sender) {\n                itemCount += 1;\n            }\n        }\n\n        AuditItemData[] memory items = new AuditItemData[](itemCount);\n        for (uint256 i = 0; i < totalItemCount; i++) {\n            if (idToAuditItemData[i + 1].producer == msg.sender) {\n                uint256 currentId = i + 1;\n                AuditItemData storage currentItem = idToAuditItemData[\n                    currentId\n                ];\n                items[currentIndex] = currentItem;\n                currentIndex += 1;\n            }\n        }\n        return items;\n    }\n\n    /// @notice Returns Audit Item by TokenId\n    /// @return AuditItemData structure with audit item information \n    function fetchAuditByTokenId(uint256 tokenId)\n        public\n        view\n        returns (AuditItemData memory)\n    {\n        return idToAuditItemData[tokenId];\n    }\n\n    /// @notice Returns the numbers of auditors required for an AuditItem   \n    /// @return auditorReq number of auditors required to complete the audit \n    function getAuditorsRequiredForAudit(uint256 tokenId)\n        public\n        view\n        returns (uint8 auditorReq)\n    {\n        return idToAuditItemData[tokenId].auditorReq;\n    }\n\n    /// @notice Adds an auditor to the list of auditors enrolled for performing the audit\n    /// @dev calls the AuditEnrollments smart contract associated to DAudit\n    /// @param auditId TokenId of the Audit Item which auditor wants to be enrolled\n    /// @param auditor address of the auditor who wants to be enrolled\n    function enrollAuditor(uint256 auditId, address auditor) public payable nonReentrant {\n        // Get Audit Item Data\n        AuditItemData memory item = idToAuditItemData[auditId];\n         // get the list of auditors enrolled for auditing the auditItem (tokenId)\n        IAuditEnrollments AEnrollments = IAuditEnrollments(\n            auditEnrollmentsAddr\n        );\n        require(auditor != item.producer, \"Auditor cannot be the producer\");\n        AEnrollments.addAuditor(auditId, auditor);\n    }\n\n    /// @notice Assigns the auditors required for the audit processes from the enrolled ones\n    /// @dev calls the AuditEnrollments and AuditAssignments smart contract associated to DAudit\n    /// Random numbers won't be succeptible to any fraud if manipulated so we keep it simple and based on the block.timestamp\n    /// @param auditId TokenId of the Audit Item which auditors wants to be assigned \n   function assignAuditors(uint256 auditId) public payable nonReentrant onlyOwner {\n        // Get Audit Item Data\n        AuditItemData memory item = idToAuditItemData[auditId];\n\n        // get the list of auditors enrolled for auditing the auditItem (tokenId)\n        IAuditEnrollments AEnrollments = IAuditEnrollments(\n            auditEnrollmentsAddr\n        );\n        address[] memory auditorsEnrollArray = AEnrollments\n            .getAuditEnrollment(auditId)\n            .auditors;\n\n        // auditors enrolled (itemCount) must be greater or equal to item.auditorReq\n        require(\n            item.auditorReq <= auditorsEnrollArray.length,\n            \"Not enough auditors enrolled\"\n        );\n\n        // Creates a fixed length array to return the list of required auditors assigned\n        address[] memory auditorsAssigned = new address[](item.auditorReq);\n\n        // Iterates the auditors enrolled flipping the coin and selecting the ones to participate in the audit\n        uint256 assignmentsCount = 0;\n\n        // Loop until complete the auditors required\n        uint256 randNonce = 0;\n        do {\n            for (uint256 i = 0; i < auditorsEnrollArray.length; i++) {\n                // Flip the coin\n                if ((randMod(2, randNonce)) == 0) {\n                    if (\n                        !isAddressInArray(\n                            auditorsAssigned,\n                            auditorsEnrollArray[i],\n                            item.auditorReq\n                        )\n                    ) {\n                        auditorsAssigned[\n                            assignmentsCount\n                        ] = auditorsEnrollArray[i];\n                        assignmentsCount++;\n                    }\n                }\n                if (assignmentsCount == item.auditorReq) break;\n                randNonce++;\n            }\n        } while (assignmentsCount < item.auditorReq);\n\n        // assign the auditor\n        IAuditAssignments AAssignments = IAuditAssignments(\n            auditAssignmentsAddr\n        );\n        AAssignments.insertAuditAssignment(auditId, auditorsAssigned);\n\n        // emit the event\n\n        // mark AuditItem to be inProgress\n        idToAuditItemData[auditId].auditItemStatus = AuditItemStatus.InProgress;\n    }\n\n    /// @notice Internal function for generating a random number based on block.timestamp\n    /// @param _modulus  random number probability ()\n    /// @param randNonce seed\n    function randMod(uint256 _modulus, uint256 randNonce)\n        internal\n        view\n        returns (uint256)\n    {\n        return\n            uint256(\n                keccak256(\n                    abi.encodePacked(block.timestamp, msg.sender, randNonce)\n                )\n            ) % _modulus;\n    }\n\n\n    /// @notice Internal function for generating a random number based on block.timestamp\n    /// @param arrayOfAddresses  array of addresses where to find if address exists\n    /// @param findAddress address to be found\n    /// @param l iterate array until element number l\n    function isAddressInArray(\n        address[] memory arrayOfAddresses,\n        address findAddress,\n        uint256 l\n    ) private pure returns (bool) {\n        for (uint256 i = 0; i < l; i++) {\n            if (arrayOfAddresses[i] == findAddress) {\n                return true;\n            }\n        }\n        return false;\n    }\n\n    /// @notice Only allows assigned auditors to submit audit results\n    /// @param  auditItemId audit item id to be checked\n    modifier onlyAssignedAuditors(uint256 auditItemId) {\n        IAuditAssignments AAssignments = IAuditAssignments(\n            auditAssignmentsAddr\n        );\n        require(\n            AAssignments.isAuditorAssigned(auditItemId, msg.sender),\n            \"The auditor in not assigned to the item\"\n        );\n        _;\n    }\n    /// @notice Only Allows the owner of the smart contract to execute certain functions\n    modifier onlyOwner() {\n        require(owner == msg.sender, \"Ownable: caller is not the owner\");\n        _;\n    }\n\n    /// @notice Creates an Audit Result and sets it available on the distributed audit system\n    ///  Anly assigned auditors can submit audit results\n    /// @param nftContract Address of the AuditItem NFT contract\n    /// @param auditItemId TokenId of the AuditItem\n    /// @param tokenIdResult TokenId of the AuditResult\n    /// @param auditResult AuditResult.Passed or AuditResult.Failed\n    function createAuditResult(\n        address nftContract,\n        uint256 auditItemId,\n        uint256 tokenIdResult,\n        AuditResult auditResult\n    ) public payable onlyAssignedAuditors(auditItemId) nonReentrant {\n\n        IAuditAssignments AAssignments = IAuditAssignments(\n            auditAssignmentsAddr\n        );\n\n        AAssignments.updateAuditResult(\n            auditItemId,\n            tokenIdResult,\n            payable(msg.sender),\n            auditResult == AuditResult.Passed\n        );\n\n        // Transfer the ownership of the AuditResult (NFT Token) to the DAudit smart contract\n        // The DAudit smart contract will hold it until the audit is archived\n        IERC721(nftContract).transferFrom(\n            msg.sender,\n            address(this),\n            tokenIdResult\n        );\n\n        // Audit results submitted by the Auditor\n        emit AuditResultCreated(\n            auditItemId, // AuditItem Token Id \n            tokenIdResult, // Audit Result tokenId\n            auditResult // Failed,Passed\n        );\n    }\n\n    /// @notice Function triggered from the DAudit Smart Contract to pay the auditors \n    /// Transfers ownership of the item, as well as funds between auditors who participated in the audit \n    /// @param auditId token Id of the audit item \n    function payAuditors(uint256 auditId) public payable nonReentrant onlyOwner {\n        // This function can only be called by the owner of the smart contract. \n\n        // Get the auditFee associated to the AuditItem\n        uint256 auditFee = idToAuditItemData[auditId].auditFee;\n        \n        // The caller of this method will be this SmartContract which initially received the\n        // auditFee + listing fee\n\n        // Get the list of auditors assigned to the audit\n        IAuditAssignments AAssignments = IAuditAssignments(\n            auditAssignmentsAddr\n        );\n        IAuditAssignments.AuditAssignmentData memory aData = AAssignments\n            .getAuditAssignment(auditId);\n\n        bool[] memory results = aData.auditorResults;\n        address[] memory auditors = aData.auditors;\n        uint256[] memory auditorFees = aData.auditorFees;\n        bool[] memory auditorFeePaid = aData.auditorFeePaid;\n\n        // Validate final result, either all failed or pass the audit\n\n        bool resultFinal = results[0];\n        bool allMatch = true;\n        for (uint256 i = 0; i < results.length; i++) {\n            if (results[i] != resultFinal) {\n                allMatch = false;\n                break;\n            }\n        }\n        require(\n            allMatch,\n            \"All the Audit results must be the same for paying the auditors\"\n        );\n\n        // Update the AuditItem Status\n        if(resultFinal)\n            idToAuditItemData[auditId].auditItemStatus = AuditItemStatus.Passed;\n        else\n            idToAuditItemData[auditId].auditItemStatus = AuditItemStatus.Failed;\n\n\n        // Calculate Audit Fee for each auditor\n        uint256 auditFeeAuditor = auditFee.div(auditors.length);\n        //console.log(auditFeeAuditor);\n        for (uint256 i = 0; i < auditors.length; i++) {\n            //payable(auditors[i]).transfer(auditFeeAuditor); replaced by call\n            (bool success, ) = payable(auditors[i]).call{value:auditFeeAuditor}(\"\");\n            require(success, \"Transfer failed.\");\n            auditorFees[i] = auditFeeAuditor;\n            auditorFeePaid[i] = true;\n        }\n        AAssignments.updatePayments(\n            auditId,\n            auditorFees,\n            auditorFeePaid\n        );\n\n    }\n    \n    /// @notice Returns only items that are associated to the producer \n    function fetchMyAudits() public view returns (AuditItemData[] memory) {\n        uint totalItemCount = _itemIds.current();\n        uint itemCount = 0;\n        uint currentIndex = 0;\n\n        // Iterates the list of Audit Items and counts for the total assigned to the auditor\n        for (uint i = 0; i < totalItemCount; i++) {\n        if (idToAuditItemData[i + 1].producer == msg.sender) {\n            itemCount += 1;\n        }\n        }\n        // Creates a fixed length array to return the AudtiItemData with owner == msg.sender\n        AuditItemData[] memory items = new AuditItemData[](itemCount);\n        for (uint i = 0; i < totalItemCount; i++) {\n        if (idToAuditItemData[i + 1].producer == msg.sender) {\n            uint currentId =  i + 1;\n            AuditItemData storage currentItem = idToAuditItemData[currentId];\n            items[currentIndex] = currentItem;\n            currentIndex += 1;\n        }\n        }\n        return items;\n    }\n\n    // 0 = Failed     - Auditor evaluation outcome determined that the audit failed\n    // 1 = Passed     - Auditor evaluation outcome determined that the audit was successful\n    enum AuditResult {\n        Failed,\n        Passed\n    }\n\n    // Audit results submitted by the Auditor\n    event AuditResultCreated(\n        uint256 indexed auditItemId, // AuditItem Token Id\n        uint256 indexed tokenIdResult, // Audit Result tokenId\n        AuditResult auditResult // Failed,Passed\n    );\n\n    // Audit services were paid to the Auditor\n    event AuditResultPaid(\n        uint256 indexed auditId,\n        uint256 indexed auditItemId, // AuditItem Token Id \n        uint256 indexed tokenIdResult, // Audit Result tokenId\n        uint256 auditorFee // Fee paid to the auditor\n    );\n\n}\n\n\n",
  "sourcePath": "/Users/enriquerafaeldangelo/consensys/final-project/contracts/DAudit.sol",
  "compiler": {
    "name": "solc",
    "version": "0.8.3+commit.8d00100c.Emscripten.clang"
  },
  "schemaVersion": "3.4.3",
  "updatedAt": "2021-11-21T23:21:10.758Z",
  "networkType": "ethereum",
  "devdoc": {
    "author": "Enrique R. D'Angelo",
    "details": "Extends ReentrancyGuard for preventing a contract from calling itself, directly or indirectly.  Uses nonReentrant modifier on any functions that calls another smart contract. Uses Safemath to prevent overflow checking",
    "kind": "dev",
    "methods": {
      "assignAuditors(uint256)": {
        "details": "calls the AuditEnrollments and AuditAssignments smart contract associated to DAudit Random numbers won't be succeptible to any fraud if manipulated so we keep it simple and based on the block.timestamp",
        "params": {
          "auditId": "TokenId of the Audit Item which auditors wants to be assigned "
        }
      },
      "calculateProducerFee(uint256)": {
        "params": {
          "_auditFee": "fee charged for listing an audit item"
        }
      },
      "constructor": {
        "details": "Make use of Enrollments and Assignments smart contracts which are initialized in the constructor (at deployment time)  which may be improved by implementing a registry of smart contracts in future versions. ",
        "params": {
          "_auditAssignmentsAddr": "address of the AuditAssignments smart contract",
          "_auditEnrollmentsAddr": "address of the AuditEnrollments smart contract"
        }
      },
      "createAuditItem(address,uint256,uint256,uint8)": {
        "params": {
          "auditFee": "Fee payed by the producer to the auditors",
          "auditorsReq": "Number of auditors required to complete the audit",
          "nftContract": "Nft Contract Address of the Audit Item",
          "tokenId": "Nft TokenId of the Audit Item"
        }
      },
      "createAuditResult(address,uint256,uint256,uint8)": {
        "params": {
          "auditItemId": "TokenId of the AuditItem",
          "auditResult": "AuditResult.Passed or AuditResult.Failed",
          "nftContract": "Address of the AuditItem NFT contract",
          "tokenIdResult": "TokenId of the AuditResult"
        }
      },
      "enrollAuditor(uint256,address)": {
        "details": "calls the AuditEnrollments smart contract associated to DAudit",
        "params": {
          "auditId": "TokenId of the Audit Item which auditor wants to be enrolled",
          "auditor": "address of the auditor who wants to be enrolled"
        }
      },
      "fetchAuditByTokenId(uint256)": {
        "returns": {
          "_0": "AuditItemData structure with audit item information "
        }
      },
      "fetchAudits()": {
        "returns": {
          "_0": "Array of AuditItemData"
        }
      },
      "fetchItemsProducer()": {
        "details": "the producer parameter is obtained from the message sender",
        "returns": {
          "_0": "Array of AuditItemData"
        }
      },
      "fetchPendingAudits()": {
        "returns": {
          "_0": "Array of AuditItemData"
        }
      },
      "getAuditorsRequiredForAudit(uint256)": {
        "returns": {
          "auditorReq": "number of auditors required to complete the audit "
        }
      },
      "getListingFee()": {
        "returns": {
          "_0": "listing fee storage variable with the configuration of the listing fee "
        }
      },
      "payAuditors(uint256)": {
        "params": {
          "auditId": "token Id of the audit item "
        }
      },
      "setListingFee(uint256)": {
        "details": "updates the listing fee storage variable with the configuration of the listing fee ",
        "params": {
          "_listingFee": "fee charged for listing an audit item"
        }
      }
    },
    "title": "Decentralized Audit Main Smart Contract with business logic",
    "version": 1
  },
  "userdoc": {
    "kind": "user",
    "methods": {
      "assignAuditors(uint256)": {
        "notice": "Assigns the auditors required for the audit processes from the enrolled ones"
      },
      "calculateProducerFee(uint256)": {
        "notice": "Returns the fee charged to the producers including listing fee + fees paid to auditors"
      },
      "constructor": {
        "notice": "DAudit constructor called at deploy time, need to be called with the enrollments and assignments  smart contracts addresses"
      },
      "createAuditItem(address,uint256,uint256,uint8)": {
        "notice": "Creates an auditItem and sets it available on the descentralized audit system"
      },
      "createAuditResult(address,uint256,uint256,uint8)": {
        "notice": "Creates an Audit Result and sets it available on the distributed audit system  Anly assigned auditors can submit audit results"
      },
      "enrollAuditor(uint256,address)": {
        "notice": "Adds an auditor to the list of auditors enrolled for performing the audit"
      },
      "fetchAuditByTokenId(uint256)": {
        "notice": "Returns Audit Item by TokenId"
      },
      "fetchAudits()": {
        "notice": "Returns all audits submitted to DAudit system"
      },
      "fetchItemsProducer()": {
        "notice": "Returns all audits submitted to DAudit system for a given producer (msg.sender)"
      },
      "fetchMyAudits()": {
        "notice": "Returns only items that are associated to the producer "
      },
      "fetchPendingAudits()": {
        "notice": "Returns audits with status = Pending"
      },
      "getAuditorsRequiredForAudit(uint256)": {
        "notice": "Returns the numbers of auditors required for an AuditItem   "
      },
      "getListingFee()": {
        "notice": "Query the listing fee currently set up for the contract"
      },
      "payAuditors(uint256)": {
        "notice": "Function triggered from the DAudit Smart Contract to pay the auditors  Transfers ownership of the item, as well as funds between auditors who participated in the audit "
      },
      "setListingFee(uint256)": {
        "notice": "Query the listing fee currently set up for the contract"
      }
    },
    "notice": "DAudit is the smart contract containing the business logic for handling the audit processes.",
    "version": 1
  }
}